:020000040800F2
:1000000058100020D50000083F06000841050008F0
:1000100000000000000000000000000000000000E0
:10002000000000000000000000000000E1090008DE
:10003000000000000000000091070008250B0008E8
:10004000E7000008E7000008E7000008E7000008F4
:10005000E7000008E7000008E7000008E7000008E4
:10006000E7000008E7000008E7000008E7000008D4
:10007000E7000008E7000008E7000008E7000008C4
:10008000E7000008E700000800000000E7000008A3
:10009000E7000008E7000008E7000008E7000008A4
:1000A000E7000008E7000008E7000008DD0B000893
:1000B000E700000800000000E70000080000000062
:1000C0000348854600F03CF800480047911E0008B0
:1000D000581000200448804704480047FEE7FEE728
:1000E000FEE7FEE7FEE7FEE7610B0008C10000083F
:1000F00030B50B46014600202022012409E00D46C0
:10010000D5409D4205D31D469540491B2546954047
:1001100040191546521E002DF1DC30BDD2B201E06F
:100120000270401C491EFBD270470022F6E710B552
:1001300013460A4604461946FFF7F0FF204610BD55
:10014000064C0125064E05E0E36807CC2B430C3C2A
:1001500098471034B442F7D3FFF7B6FFE025000804
:100160000026000870B505460C462B0001F059FA30
:1001700013FA0B17232F3B47535F6D7B8997A5B36A
:10018000C1CFDDEBFA00002C04D00121802001F06A
:10019000CFFC03E00021802001F0CAFCE3E0002C4A
:1001A00004D00121402001F0C3FC03E000214020E5
:1001B00001F0BEFCD7E0002C04D00121202001F08A
:1001C000B7FC03E00021202001F0B2FCCBE0002CC2
:1001D00004D00121102001F0ABFC03E0002110202D
:1001E00001F0A6FCBFE0002C04D00121082001F0A2
:1001F0009FFC03E00021082001F09AFCB3E0002CF2
:1002000004D00121042001F093FC03E0002104202C
:1002100001F08EFCA7E0002C04D00121022001F0A7
:1002200087FC03E00021022001F082FC9BE0002C0F
:1002300005D00121FF20813001F07AFC04E000218B
:10024000FF20813001F074FC8DE0002C05D00121ED
:10025000FF20413001F06CFC04E00021FF20413020
:1002600001F066FC7FE0002C05D00121FF20213049
:1002700001F05EFC04E00021FF20213001F058FC79
:1002800071E0002C05D00121FF20113001F050FC5D
:1002900004E00021FF20113001F04AFC63E0002C53
:1002A00005D00121FF20093001F042FC04E00021CB
:1002B000FF20093001F03CFC55E0002C05D0012165
:1002C000FF20053001F034FC04E00021FF20053060
:1002D00001F02EFC47E0002C05D00121FF20033067
:1002E00001F026FC04E00021FF20033001F020FC97
:1002F00039E0002C05D001210520C00101F018FCD7
:1003000004E000210520C00101F012FC2BE0002CCC
:1003100005D001210920800101F00AFC04E0002140
:100320000920800101F004FC1DE0002C05D0012112
:100330001120400101F0FCFB04E0002111204001EC
:1003400001F0F6FB0FE0002C06D001212120000176
:1003500001F0EEFB05E005E000212120000101F0A5
:10036000E7FB00E000BF00BF01F0EFFB70BD10B580
:1003700001F0D8FD01F0F0FD01F08EFC01F0B8FCB9
:1003800001F00AFE01F058FE01F0B0FE01F074FF2A
:1003900001F064F910BD00001CB52D48009001214A
:1003A0006846017100218171032141710121C171F0
:1003B00069460920C00600F055F8264800906946B5
:1003C000254800F04FF8254800906946244800F081
:1003D00049F801214902224800F0B0F802212048E2
:1003E00000F0ACF8FF2101311D4800F0A7F8012111
:1003F0001B4800F0A3F8FF2101310920C00600F0DE
:100400009DF80121C9020920C00600F097F80121DA
:1004100009030920C00600F091F84021104800F0BF
:100420008BF80121C9030C4800F086F801218903EB
:10043000094800F081F804210920C00600F07CF88A
:100440000121C9030920C00600F076F81CBD000098
:100450000499000007CC000000040048630300007A
:1004600000080048F0B50A4600210023002400BF20
:100470003DE001258D402B4615681D402C469C42D1
:1004800034D11579012D02D01579022D16D1856848
:100490004F000326BE40B543856055794E00B540F8
:1004A000866835438560858801268E40B543858002
:1004B000858896798E40B6B23543858005684F00B1
:1004C0000326BE40B543056015794E00B540066869
:1004D00035430560C5684F000326BE40B543C5607F
:1004E000D5794E00B540C6683543C560491C102912
:1004F000BFD3F0BDF0B5002300244D07EE0E154626
:10050000B5402B46CD10AE0005462035AD594E07FF
:10051000F70E0F26BE40B543CE10B6000746203773
:10052000BD51CD10AE003D46AD591D432C46CD10FA
:10053000AD003E467451F0BD018570478161704742
:1005400000BFFEE770B505460C46012D06D0022D12
:100550001CD0032D28D0042D40D131E0002C0AD02E
:1005600001214120C00001F0E3FA01218120800037
:1005700001F0DEFA09E000214120C00001F0D8FAC4
:1005800000218120800001F0D3FA28E0002C05D062
:1005900001218120800001F0CBFA04E000218120BC
:1005A000800001F0C5FA1AE0002C04D001210E48A9
:1005B00001F0BEFA03E000210B4801F0B9FA0EE0A9
:1005C000002C05D001210D20800101F0B1FA04E0DA
:1005D00000210D20800101F0ABFA00E000BF00BF58
:1005E00001F0B3FA70BD00000202000070B50546CC
:1005F0000C46012D02D0022D1CD10DE0002C05D09F
:1006000001216120C00001F093FA04E00021612083
:10061000C00001F08DFA0EE0002C05D00121C120B0
:10062000800001F085FA04E00021C120800001F083
:100630007FFA00E000BF00BF01F087FA70BD70478D
:1006400000218278002A27D0184A03231B02D218DF
:1006500003789B109B00D15802789207D30EFF229B
:100660009A400B469343194642789207120E03783C
:100670009B07DB0E9A4011430C4A03231B02D2183E
:1006800003789B109B00D1500278D306DB0E012229
:100690009A40064B1A6007E00278D306DB0E01226F
:1006A0009A40024B80331A607047000000E100E07E
:1006B00010B5002819DA1A4A03071B0F083B9B08DC
:1006C0009B00D2588307DC0EFF23A3409A438B077D
:1006D0001B0E8407E40EA3401A43114B0407240F9A
:1006E000083CA408A4001A5118E00E4A03231B0278
:1006F000D21883089B00D2588307DC0EFF23A34047
:100700009A438B071B0E8407E40EA3401A43054B44
:10071000032424021B198408A4001A5110BD0000F0
:100720001CED00E000E100E008B51B216846017007
:100730000021417001218170FFF782FF08BD70B573
:1007400005460C46012D02D0022D1CD10DE0002CD7
:1007500005D001211920400101F0EAF904E000214F
:100760001920400101F0E4F90EE0002C05D0012130
:100770003120000101F0DCF904E00021312000010A
:1007800001F0D6F900E000BF00BF01F0DEF970BD56
:1007900070470000002905D0054A52690243044B06
:1007A0005A6104E0024A52698243014B5A61704720
:1007B00000100240002905D0054A92690243044B0B
:1007C0009A6104E0024A92698243014B9A61704740
:1007D0000010024010B5012107204004FFF7DAFFA6
:1007E00010BD0000FEB50446002500260020019043
:1007F00000900027504840680C2108400546002D15
:1008000004D0042D05D0082D28D105E04B482060E8
:1008100027E04A48206024E0474840680F218904C7
:1008200008400646444840680121090408400190F8
:10083000B00C861C0198002803D141487043206009
:100840000BE03D48C06A0007000F401C00903B4889
:100850000099FFF74DFC7043206002E037482060AC
:1008600000BF00BF34484068F021084005462D090C
:100870003448475D2068F84060602F484068072191
:100880000902084005462D0A2E48475D6068F84079
:10089000A0602948006BFF2101310840884202D046
:1008A0002948E0600DE024484068012189030840A0
:1008B000884203D0A0684008E06002E0A068800899
:1008C000E0601D48006B40210840402802D01F48CE
:1008D000206102E00120C00320611748006B102155
:1008E0000840102802D01548606101E0206860616E
:1008F0001148006B8007800F002802D1A068A0611A
:1009000019E00D48006B8007800F012802D1206894
:10091000A06110E00848006B8007800F022802D118
:100920008003A06107E00448006B8007800F032864
:1009300001D10248A061FEBD0010024000127A0001
:1009400000093D003C000020809FD500128000007F
:1009500070B505460C46012D06D0022D10D0032D92
:100960001AD0042D32D123E0002C04D001211A48E2
:10097000FFF7E4FD03E001211748FFF7DDFD26E066
:10098000002C04D004211448FFF7D8FD03E0042113
:100990001148FFF7D1FD1AE0002C04D020210F48A8
:1009A000FFF7CCFD03E020210C48FFF7C5FD0EE06A
:1009B000002C05D0012189020748FFF7BFFD04E0A4
:1009C000012189020448FFF7B7FD00E000BF00BF26
:1009D00001F0BBF870BD00000004004800080048AA
:1009E000704710B5044600212046FFF7ABFD00F02C
:1009F00007FE10BD10B5044601212046FFF7A2FDF9
:100A000000F0FEFD10BD00000CB50020019000902C
:100A1000314800680121090408432F49086000BFDC
:100A20002D48006801214904084000900198401CAD
:100A300001900098002804D10521090201988842FC
:100A4000EED125480068012149040840002802D061
:100A50000120009001E0002000900098012839D189
:100A600011201E4908601C4840681B494860084620
:100A700040684860084640683F2109048843164999
:100A8000486008464068112109040843124948603B
:100A9000084600680121090608430F49086000BFA5
:100AA0000D4800680121490608400028F8D00A488E
:100AB0004068800880000849486008464068022174
:100AC00008430549486000BF034840680C210840BE
:100AD0000828F9D10CBD000000100240002002409F
:100AE00010B57D21C9000C480068FFF701FB0446E2
:100AF000601E0A49884200D90CE0601E084948611E
:100B00000321081FFFF7D4FD002005498861072055
:100B1000086100BF10BD00004C000020FFFFFF0077
:100B200000E000E00B4800680B49884205D2094804
:100B30000068401C0749086002E000200549086081
:100B400006480088002804D004480088401E034955
:100B50000880704700000020FFFF8F000400002085
:100B600010B51B4800680121084319490860084670
:100B70004068184908401649486008460068164908
:100B80000840134908600846006801218904884329
:100B90000F490860084640683F21090488430C4912
:100BA00048600846C06A00090001C8620846006B38
:100BB000FF2154318843064908630846406B4008CA
:100BC0004000486300208860FFF71EFF10BD000052
:100BD000001002400CB8FFF8FFFFF6FE10B50C49FC
:100BE0000C4800F076F8002806D00B4801F000FC15
:100BF0000749084800F058F80849064800F069F825
:100C0000002803D00549034800F04EF810BD00004D
:100C10000501050000380140200A002006010600F9
:100C200000B589B001214804FFF7B4FD0121880314
:100C3000FFF7C0FD01220921C806FFF75BFC012276
:100C40000A210920C006FFF755FC03204002079047
:100C5000022108A801700321417000218170012147
:100C6000C17007A90920C006FFF7FCFBE120400284
:100C70000190002002900390049006900C200590B3
:100C800001A9074800F06EF801220649044800F067
:100C900047F80121024800F010F809B000BD00003B
:100CA000003801400501050010B5002300220B0C9F
:100CB00001249C402246026210BD002904D0026833
:100CC00001231A43026003E00268520852000260E6
:100CD000704770B502460B46002400210025002015
:100CE0001E04350ED9B201268E403146012D02D1A7
:100CF0001668314006E0022D02D15668314001E00D
:100D0000966831401C0C0126A6403446D669344012
:100D1000002903D0002C01D0012000E0002070BD8C
:100D2000F8B503460024002600960025002018464A
:100D30000E04340ECEB200960127009EB7403D4609
:100D4000022C01D1001D02E0032C00D10830002A42
:100D500003D006682E43066002E00668AE430660D4
:100D6000F8BD0000F0B589B005460E46002400200D
:100D7000089000BF00BF28684008400028606C68E9
:100D800003210903204688430446B06804436C608D
:100D90002C682F480440F1687068084331690843A3
:100DA00004432C60AC6803210902204688430446B2
:100DB00070690443AC606846FFF714FD254885421E
:100DC00002D10698089001E0029808902868012155
:100DD000C9030840002809D0326851001923089A35
:100DE0005A431046FFF784F9074608E0326891003D
:100DF0001923089A5A431046FFF77AF907466421E7
:100E00003846FFF775F90401200964214843381A70
:100E1000079028680121C903084000280AD00799D3
:100E2000C900084632306421FFF762F94007400FDD
:100E3000044309E007990901084632306421FFF7AD
:100E400057F90007000F0443AC8109B0F0BD000062
:100E5000F3E9FFFF0038014070B505460C462B0052
:100E600000F0DFFB08FC05315D89B5E1FBFC002CDF
:100E700023D00021FF20813000F05AFE0021FF2006
:100E8000413000F055FE0021FF20213000F050FEDF
:100E90000021FF20113000F04BFE0021FF2009301F
:100EA00000F046FE0021FF20053000F041FE012148
:100EB000FF20033000F03CFE04E00021FF2003305F
:100EC00000F036FE0BE1002C23D00021FF20813002
:100ED00000F02EFE0021FF20413000F029FE00210D
:100EE000FF20213000F024FE0021FF20113000F00F
:100EF0001FFE0021FF20093000F01AFE0021FF2014
:100F0000033000F015FE0121FF20053000F010FE37
:100F100004E00021FF20053000F00AFEDFE0002C95
:100F200023D00021FF20813000F002FE0021FF20AD
:100F3000413000F0FDFD0021FF20213000F0F8FDE0
:100F40000021FF20113000F0F3FD0021FF200530CB
:100F500000F0EEFD0021FF20033000F0E9FD01214B
:100F6000FF20093000F0E4FD04E00021FF200930FB
:100F700000F0DEFDB3E0002C23D00021FF20813003
:100F800000F0D6FD0021FF20413000F0D1FD00210E
:100F9000FF20213000F0CCFD0021FF20093000F0BF
:100FA000C7FD0021FF20053000F0C2FD0021FF2019
:100FB000033000F0BDFD0121FF20113000F0B8FD2D
:100FC00004E00021FF20113000F0B2FD87E0002C8A
:100FD00023D00021FF20813000F0AAFD0021FF2056
:100FE000413000F0A5FD0021FF20113000F0A0FDF0
:100FF0000021FF20093000F09BFD0021FF2005307B
:1010000000F096FD0021FF20033000F091FD01214A
:10101000FF20213000F08CFD04E00021FF20213072
:1010200000F086FD5BE0002C26D00021FF208130FF
:1010300000F07EFD0021FF20213000F079FD00212D
:10104000FF20113000F074FD0021FF20093000F076
:101050006FFD0021FF20053001E013E03EE000F0CD
:1010600067FD0021FF20033000F062FD0121FF2019
:10107000413000F05DFD04E00021FF20413000F030
:1010800057FD2CE0002C23D00021FF20413000F040
:101090004FFD0021FF20213000F04AFD0021FF20FC
:1010A000113000F045FD0021FF20093000F040FD27
:1010B0000021FF20053000F03BFD0021FF20033020
:1010C00000F036FD0121FF20813000F031FD04E009
:1010D0000021FF20813000F02BFD00E000BF00BFA9
:1010E00000F033FD70BD000010B5BB48407800280B
:1010F00000D110BDB9480188B94A881A914275D00B
:1011000029DCB84A881A914271D012DCB64A881A92
:10111000914253D006DCB5480818002832D0012887
:101120007ED13DE0012867D0FF3801380028F7D193
:1011300084E0FF220232811A904272D006DCFF283E
:1011400070D0FF3801380028EAD189E001296AD03F
:10115000FE29E5D193E0FF2866D006DC030000F00D
:1011600060FA065F989DA2A7AC5FFF38013800289F
:1011700073D0FF2872D0FF38013800286FD0FF28C5
:10118000CED1EBE095480079012802D1984948700A
:1011900005E092480079022801D195494870ECE0B9
:1011A0008E480079012802D19149887005E08B486A
:1011B0000079022801D18E498870DEE08D484078A0
:1011C000002815D185480079032811DA8348407931
:1011D0007F280DDA81480079864948707F48407938
:1011E0008549487001208549487004E04CE02AE0B8
:1011F000002082494870C0E07E488078002819D1DC
:1012000076480079032815DA744840797F2811DA86
:10121000724800797749887070484079764904E0CF
:10122000AAE022E014E025E04CE088700120734938
:10123000887002E00020714988709EE0674800795C
:101240006F49087099E0654800796E49087094E02C
:10125000624800796C4948708FE03DE046E061E00B
:101260005E4800796849887087E05C480079664983
:10127000C87082E059480079634908717DE0574899
:1012800000796249487078E0544800795F49887075
:1012900073E0524800795D49C8706EE04F480079AC
:1012A0005A49087169E04D4800795849487164E02D
:1012B0004A480079554988715FE0484800795349A8
:1012C000C8715AE052480078002804D101205049E2
:1012D00008705049087050E04D484078002804D10B
:1012E00001204B4948704B49087046E04A48407815
:1012F000002813D13948007903280FDA374840799C
:101300007F280BDA354800794349487033484079E3
:101310004249487001204249487002E0002040499B
:1013200048702AE03C488078002813D12B48007987
:1013300003280FDA294840797F280BDA27480079FB
:1013400035498870254840793449887001203449EE
:10135000887002E00020324988700EE01F48007952
:10136000012802D12F49087005E01C4800790228A5
:1013700001D12C49087000E000BF00BF1748008869
:101380000012F2281DD115480078002819D0134802
:1013900000782549087025480978405C00280BD161
:1013A0000E4800792149204A1278885401212048AA
:1013B0001D4A1278815404E000201D491A4A12780F
:1013C0008854812189000548FEF7AFFE02480021BC
:1013D000018000BF8DE6000072000020480A002056
:1013E00002F6000002F4000001F30000FF0EFFFF10
:1013F0000D0000202C0000202F00002035000020D0
:101400001D0000201E0000201F00002024000020DE
:101410000700002009000020100000201300002019
:10142000190000200C000020740000206001002042
:101430007301002008B5002000906A486A490880BE
:10144000CDE06A484078012800D1C9E066480088AC
:10145000002803D1012065494870C1E00121684698
:1014600000F0D9FF002800D1BAE0604800780300FE
:1014700000F0D7F805041528496FA30068460078E6
:10148000552808D159480078401C58490870002058
:101490005749088002E00120544948709EE06846A0
:1014A0000078AA2808D151480078401C4F4908709C
:1014B00000204F49088004E001204C49487000207A
:1014C00008708BE068460078F0280ADD68460078EE
:1014D00000024849088045480078401C434908708C
:1014E00010E0812189004448FEF71FFE0020414999
:1014F0000880424908803E49088001203B494870E5
:10150000002008706AE03B48008869460978084373
:1015100038490880084600883749088033480078F1
:10152000401C3249087034480088002810D18121BD
:1015300089003148FEF7F9FD00202E4908802F4927
:1015400008802B4908800120284948700020087035
:1015500044E06846007800280FDD68460078CC2813
:101560000BD068460178224802880088401C204B36
:1015700018802148001D81541EE068460078CC2860
:101580000BD100201B4908801C490880184908809D
:1015900016490870012048700EE081218900164824
:1015A000FEF7C3FD0020134908801149088001207F
:1015B0000E4948700020087010E0812189000E4813
:1015C000FEF7B3FD00200B4908800C49088008494C
:1015D0000880064908700120487000BF00BF30E74E
:1015E00000BF08BDB80B00000400002072000020FE
:1015F0007A00002076000020480A002078000020B1
:1016000000B5A1B0802101A8FEF78FFDAA21684690
:101610000171BB214171022101A800F013FF21B02B
:1016200000BD30B47446641E2578641CAB4204D3FC
:10163000635D5B00E31830BC18471D46F8E702E025
:1016400008C8121F08C1002AFAD17047704700204D
:1016500001E001C1121F002AFBD1704710B50C48F0
:101660000078012807D101210F20FEF77BFD002023
:10167000074908700AE006480078022806D10021D0
:101680000F20FEF76FFD00200149087010BD00001B
:101690000C00002010B504467D21C90061430846B6
:1016A00000F001F810BD70B50446002530216143FB
:1016B00008460721FEF71CFD064600BF681C0546CC
:1016C000B04200D970BDF9E710B50446062C03D12D
:1016D00000212046FEF746FD1948005D012814D17F
:1016E000062C03D001212046FEF73CFD1548005D85
:1016F000022807D10C216143134A88187D21090172
:1017000000F038FF00200E4908550C2161430E4AB5
:10171000881800F00DFF002810D0062C03D00021FF
:101720002046FEF71FFD0C216143074A881800F090
:101730002BFF002003490855FFF762FF10BD000092
:1017400073010020600100207C00002010B50446D9
:10175000062C03D101212046FEF704FD1948005D47
:10176000012814D1062C03D001212046FEF7FAFCF3
:101770001548005D012807D10C216143134A8818E0
:10178000FF21F53100F0F6FE00200E4908550C212E
:1017900061430E4A881800F0CBFE002810D0062CBA
:1017A00003D000212046FEF7DDFC0C216143074AEF
:1017B000881800F0E9FE002003490855FFF720FFD4
:1017C00010BD000073010020600100207C0000209B
:1017D00010B502210C48FEF7AFFE0121C9020A48EC
:1017E000FEF7AAFE01210848FEF7A6FE20210748C1
:1017F000FEF7A2FE04210448FEF79EFE01218902A5
:101800000148FEF799FE10BD00040048000800489A
:1018100010B5FEF7DFFFFEF7BFFD00F003F8FFF79E
:10182000D7FF10BD10B500200449087048708870BB
:10183000C870087100F00CF810BD000060000020B6
:10184000024A125C8A43014B1A5470476000002020
:1018500010B5012149025048FEF76EFE02214E48A4
:10186000FEF76AFEFF2101314B48FEF765FE0121BC
:101870004948FEF761FEFF2101310920C006FEF74D
:101880005BFE0121C9020920C006FEF755FE0520B6
:10189000FFF709FF002470E04048007880212141D3
:1018A0000840002804D040213B48FEF747FE03E0F3
:1018B00040213948FEF740FE3848407880212141D8
:1018C0000840002805D00121C9033548FEF736FE3F
:1018D00004E00121C9033248FEF72EFE2F4880782C
:1018E000802121410840002805D0012189032C488E
:1018F000FEF724FE04E0012189032948FEF71CFEBF
:101900002648C078802121410840002805D00421C4
:101910000920C006FEF712FE04E004210920C006DB
:10192000FEF70AFE1D480079802121410840002869
:1019300006D00121C9030920C006FEF7FFFD05E01E
:101940000121C9030920C006FEF7F6FD0520FFF7B7
:10195000AAFE012109030920C006FEF7EDFD0520BE
:10196000FFF7A1FE012109030920C006FEF7E6FDED
:101970000520FFF798FE601CC4B2082C8CDB052004
:10198000FFF791FE0121C9020920C006FEF7D6FD2E
:101990000520FFF788FE10BD000800486000002009
:1019A00000040048024A125C0A43014B1A54704773
:1019B0006000002010B52248007801280CD10121D8
:1019C0000320FEF7CFFB1F4800681F494860012035
:1019D000087000201A4908701B48406819490968B6
:1019E000081A1A49884209D900210120FEF7BAFBDA
:1019F000002017490870FFF703FE20E012484068F6
:101A000010490968081A1349884208D900210220A0
:101A1000FEF7A8FB01210846FEF7A4FB0FE00A48E9
:101A2000406808490968081A0B49884207D900210B
:101A30000320FEF797FB01210220FEF793FB10BD68
:101A4000090000200000002088010020BC1B0000CD
:101A5000070000204C0400002602000010B52248B8
:101A6000007801280CD101210320FEF77BFB1F48E1
:101A700000681F4948600120087000201A4908705A
:101A80001B48406819490968081A1A49884209D947
:101A900000210120FEF766FB002017494870FFF780
:101AA000AFFD20E01248406810490968081A134940
:101AB000884208D900210220FEF754FB0121084684
:101AC000FEF750FB0FE00A48406808490968081A09
:101AD0000B49884207D900210320FEF743FB01216F
:101AE0000220FEF73FFB10BD09000020000000208F
:101AF00088010020442F0000070000204C04000053
:101B00002602000038B5044620126A461070547050
:101B100051781078FFF794FE38BD38B5044620128E
:101B20006A461070547051781078FFF73BFF38BD4B
:101B300070B505460C46002C03D02846FFF7EDFF94
:101B400002E02846FFF7DEFF70BD10B5FFF780FE0C
:101B500010BD000070B504460D464748005D0128E1
:101B600012D10020454908550C216143444A881888
:101B7000FF21913100F0FEFC4B21C900414800F0EB
:101B8000F9FC00203C4908550C2161433C4A881867
:101B900000F0CEFC002817D00C216143384A881889
:101BA00000F0E0FC601E3849085C002801D10121EA
:101BB00000E00021601E344A1154621E324B995CD1
:101BC000A21CD0B2FEF7C4FE2E4800F0B1FC0028E3
:101BD0001AD00C2161432D4A8818FF21913100F061
:101BE000C9FC284800F0D0FC601E274A115C204642
:101BF000FEF7AEFE601E2449095C254A11541F48B9
:101C0000005D401C1D4908550C2161431F4A88187E
:101C100000F08EFC002819D00C2161431B4A881863
:101C200000F0A0FC601E1A49085C002801D10121C7
:101C300000E00021601E164A1154115C2046FEF798
:101C400087FE0E48005D401C0C4908550B48005D9E
:101C5000A84210D10C2161430C4A881800F094FC72
:101C60000C216143064A881800F08EFC00200949C7
:101C70000855FFF7C5FC70BD35000020320000207C
:101C8000E80100200C0200203A000020C4010020DE
:101C9000380000202C00002010B51348407801289F
:101CA00005D112484178012000F04EF808E00E48B6
:101CB0004078022804D10D4841780120FFF74AFFFF
:101CC00009488078012805D108488178022000F071
:101CD0003BF808E004488078022804D10348817862
:101CE0000220FFF737FF10BD2C0000202F0000203E
:101CF00010B513484078012805D1124841780120D9
:101D000000F020FB08E00E484078022804D10D487E
:101D10004178012000F0C0FA09488078012805D1F7
:101D200008488178022000F00DFB08E00448807824
:101D3000022804D103488178022000F0ADFA10BDDA
:101D4000100000201300002070B504460D464848DE
:101D5000005D012812D10020464908550C2161433D
:101D6000454A8818FF21913100F004FC4B21C9003D
:101D7000424800F0FFFB00203D4908550C2161431B
:101D80003D4A881800F0D4FB002814D00C21614390
:101D9000394A881800F0E6FB601E3949085C0028C3
:101DA00001D1012100E00021601E354A1154115C6F
:101DB0002046FEF7CDFD314800F0BAFB00281BD0CD
:101DC0000C2161432F4A8818FF21913100F0D2FB8A
:101DD0002A4800F0D9FB621E294B995CA21CD0B2A4
:101DE000FEF7B6FD601E2649095C274A11542148BA
:101DF000005D401C1F4908550C216143214A881889
:101E000000F096FB00281CD00C2161431D4A881865
:101E100000F0A8FB601E1C49085C002801D10121CC
:101E200000E00021601E184A1154621E164B995C96
:101E3000A21CD0B2FEF78CFD0E48005D401C0D497F
:101E400008550C48005DA84210D10C2161430A4A94
:101E5000881800F099FB0C2161430A4A881800F0A9
:101E600093FB002009490855FFF7CAFB70BD00002D
:101E70003500002032000020C40100200C020020A8
:101E800038000020E80100203A0000202C0000204B
:101E9000FEF726FEFFF7BCFC00F08AFB0920124982
:101EA000087011E0012110480078FEF75BF9C820A6
:101EB000FFF7F0FB00210C480078FEF753F90A48C1
:101EC0000078401C08490870074800781328E9DBAF
:101ED00008E0FFF7AFFAFFF707F9FEF748FA052029
:101EE000FFF7E1FBF5E700000600002010B504460F
:101EF00000212046FEF723FC002002490855FFF789
:101F00007FFB10BD0D00002010B5044601212046C6
:101F1000FEF715FC002002490855FFF771FB10BDC4
:101F20000D00002010B5012410E00A48005D0128D2
:101F300003D12046FFF70AFC06E00648005D0228B0
:101F400002D12046FFF7C0FB601CC4B2132CECDBAF
:101F500010BD00006001002010B50E484078012837
:101F600002D1FFF7D1FF06E00A484078022802D1EB
:101F70000120FFF7BBFF07488078012803D102202A
:101F8000FFF7C2FF05E003488078022801D1FFF780
:101F9000ADFF10BD0D00002010B5254800780128C8
:101FA0000ED10220FFF7A2FF00210220FEF71EFB48
:101FB00001210846FEF71AFB00201D49087035E094
:101FC0001B48007802280DD1FFF790FF0021022066
:101FD000FEF70CFB00210120FEF708FB002014494E
:101FE000087023E01348007801280ED10220FFF783
:101FF0007DFF00210120FEF7F9FA01210220FEF702
:10200000F5FA00200B49087010E00A480078022811
:102010000CD1FFF76BFF00210120FEF7E7FA00214A
:102020000220FEF7E3FA00200249087010BD00000C
:102030001D0000201E00002010B52B48407801280C
:1020400005D1FEF7D7FC0020274948704AE0264812
:102050004078022806D10120FEF7C3FC0020224967
:1020600048703FE020488078012806D10220FEF722
:10207000C1FC00201C49887034E01B48807802288D
:1020800005D1FEF7AEFC0020174988702AE01648FB
:10209000C078012806D10320FEF7ACFC00201249CD
:1020A000C8701FE01048C078022806D10320FEF750
:1020B00098FC00200C49C87014E00B4800790128F6
:1020C00006D10420FEF796FC00200749087109E0BC
:1020D00005480079022805D10420FEF782FC002083
:1020E0000149087110BD00001F00002010B56148B3
:1020F0004078012809D101210846FEF7ADFEFFF71F
:102100007FFA00205B494870B3E05A4840780228C3
:1021100009D100210120FEF79FFEFFF771FA002090
:1021200054494870A5E053488078012809D101211D
:102130000220FEF791FEFFF763FA00204D498870F8
:1021400097E04C488078022808D10021FEF784FEF1
:10215000FFF756FA0020474988708AE04548C07862
:10216000012809D101210320FEF776FEFFF748FA86
:1021700000204049C8707CE03E48C078022809D160
:1021800000210320FEF768FEFFF73AFA00203949E4
:10219000C8706EE037480079012809D10121042078
:1021A000FEF75AFEFFF72CFA00203249087160E072
:1021B00030480079022809D100210420FEF74CFEA6
:1021C000FFF71EFA00202B49087152E02948407998
:1021D000012809D101210520FEF73EFEFFF710FA84
:1021E00000202449487144E022484079022809D15E
:1021F00000210520FEF730FEFFF702FA00201D49FE
:10220000487136E01B488079012809D10121062058
:10221000FEF722FEFFF7F4F900201649887128E046
:1022200014488079022809D100210620FEF714FE07
:10223000FFF7E6F900200F4988711AE00D48C079D0
:10224000012809D101210720FEF706FEFFF7D8F982
:1022500000200849C8710CE00648C079022808D15E
:1022600000210720FEF7F8FDFFF7CAF90020014919
:10227000C87110BD2400002010B506480078012860
:1022800001D1FFF797FB03484078012801D1FFF700
:10229000E5FB10BD0700002070B504460D4624483C
:1022A000005D012810D10020224908550021204658
:1022B000FEF74EFB0C2161431F4A8818502100F0A5
:1022C00059F900201A4908550C2161431A4A881807
:1022D00000F02EF9002819D00C216143164A881805
:1022E00000F040F915480078002801D1012000E0F5
:1022F000002012490870A11CC8B210490978FEF7E5
:1023000027FB0C48005D401C0A4908550948005D40
:10231000690088420AD10C216143074A881800F0FD
:1023200033F9002006490855FFF76AF970BD00002F
:102330001900002016000020A00100201C00002031
:102340001000002070B504460D462448005D0128A9
:1023500010D100202249085501212046FEF7F8FA45
:102360000C2161431F4A8818502100F003F9002016
:102370001A4908550C2161431A4A881800F0D8F808
:10238000002819D00C216143164A881800F0EAF899
:1023900015480078002801D1012000E000201249F2
:1023A0000870A11CC8B210490978FEF7D1FA0C4890
:1023B000005D401C0A4908550948005D69008842D3
:1023C0000AD10C216143074A881800F0DDF800208B
:1023D00006490855FFF714F970BD000019000020E8
:1023E00016000020A00100201C000020100000208A
:1023F00030B504460025ED430AE000F0C9F8054673
:10240000681C002800D104E0E9B2606800F06AF8B6
:10241000F3E700BF30BDF8B504460D4626460AE096
:1024200000F020F80746781C002800D105E037703E
:10243000761C6D1E00BF002DF2D100BF301B009036
:102440000098F8BD70B503460C4600261D4604E012
:10245000287800F0B5F86D1C641E002CF8D1EE1A37
:10246000304670BD0020C04308494988074A128899
:1024700091420AD005494988054A505C0349498878
:10248000491C8905890D014A5180704718060020B2
:102490001802002010B50D4C0D480E4948600E483A
:1024A000886008460460012189020948FDF73DFE65
:1024B00000200A4908804880012189020648FDF76A
:1024C00034FE002006490880488010BD68000020C6
:1024D00018020020200A00201C06002018060020F8
:1024E0001C0A0020012292028218128881540122C3
:1024F000920282181288521C9205920D01239B02AF
:10250000C3181A80012292028218128801239B02AA
:10251000C3185B889A420AD101229202821852881B
:10252000521C9205920D01239B02C3185A807047DA
:1025300001460878002800D17047087802280CD09E
:10254000074802684868101A8B68984203D902202D
:1025500008700120F0E70020EEE70120ECE7000022
:1025600000000020826841688918416001210170E3
:10257000704700008160034A1268426001220270C5
:10258000704700000000002000210170704700002B
:102590000020C0430549C96920221140002903D009
:1025A000024920318988C8B27047000000380140D4
:1025B00010B5FEF735FBFEF7B7F8FFF76BFF10BD60
:1025C000014600BF0548C069802210400028F9D0AC
:1025D000024820300181012070470000003801408E
:1025E00000260008000000207C0000003E160008C5
:1025F0007C2600087C000020DC0F00004E1600083E
:1026000000000000B80B0000000000000000000007
:1026100000000000000000000000000000000000BA
:1026200000000000000000000000000000000000AA
:10263000000000000000000000000000000000009A
:10264000010203040102030406070809006CDC020E
:102650000000000000000000010203040607080952
:102660000000000000000000003801401B000000D6
:0C2670000000000000000000000000005E
:04000005080000D51A
:00000001FF
