:020000040800F2
:10000000F00F0020D5000008A7050008BD04000877
:1000100000000000000000000000000000000000E0
:10002000000000000000000000000000450900087A
:100030000000000000000000F9060008890A00081E
:10004000E7000008E7000008E7000008E7000008F4
:10005000E7000008E7000008E7000008E7000008E4
:10006000E7000008E7000008E7000008E7000008D4
:10007000E7000008E7000008E7000008E7000008C4
:10008000E7000008E700000800000000E7000008A3
:10009000E7000008E7000008E7000008E7000008A4
:1000A000E7000008E7000008E70000082D0B000843
:1000B000E700000800000000E70000080000000062
:1000C0000348854600F03CF8004800470317000845
:1000D000F00F00200448804704480047FEE7FEE791
:1000E000FEE7FEE7FEE7FEE7B10A0008C1000008F0
:1000F00030B50B46014600202022012409E00D46C0
:10010000D5409D4205D31D469540491B2546954047
:1001100040191546521E002DF1DC30BDD2B201E06F
:100120000270401C491EFBD270470022F6E710B552
:1001300013460A4604461946FFF7F0FF204610BD55
:10014000064C0125064E05E0E36807CC2B430C3C2A
:1001500098471034B442F7D3FFF7B6FF6C1D000880
:100160008C1D000870B505460C462B0001F05FF8A9
:1001700013FA0B17232F3B47535F6D7B8997A5B36A
:10018000C1CFDDEBFA00002C04D00121802001F06A
:10019000A7FA03E00021802001F0A2FAE3E0002C9E
:1001A00004D00121402001F09BFA03E0002140200F
:1001B00001F096FAD7E0002C04D00121202001F0B4
:1001C0008FFA03E00021202001F08AFACBE0002C16
:1001D00004D00121102001F083FA03E00021102057
:1001E00001F07EFABFE0002C04D00121082001F0CC
:1001F00077FA03E00021082001F072FAB3E0002C46
:1002000004D00121042001F06BFA03E00021042056
:1002100001F066FAA7E0002C04D00121022001F0D1
:100220005FFA03E00021022001F05AFA9BE0002C63
:1002300005D00121FF20813001F052FA04E00021B5
:10024000FF20813001F04CFA8DE0002C05D0012117
:10025000FF20413001F044FA04E00021FF2041304A
:1002600001F03EFA7FE0002C05D00121FF20213073
:1002700001F036FA04E00021FF20213001F030FACD
:1002800071E0002C05D00121FF20113001F028FA87
:1002900004E00021FF20113001F022FA63E0002C7D
:1002A00005D00121FF20093001F01AFA04E00021F5
:1002B000FF20093001F014FA55E0002C05D001218F
:1002C000FF20053001F00CFA04E00021FF2005308A
:1002D00001F006FA47E0002C05D00121FF20033091
:1002E00001F0FEF904E00021FF20033001F0F8F9ED
:1002F00039E0002C05D001210520C00101F0F0F902
:1003000004E000210520C00101F0EAF92BE0002CF7
:1003100005D001210920800101F0E2F904E000216B
:100320000920800101F0DCF91DE0002C05D001213D
:100330001120400101F0D4F904E000211120400116
:1003400001F0CEF90FE0002C06D0012121200001A0
:1003500001F0C6F905E005E000212120000101F0CF
:10036000BFF900E000BF00BF01F0C7F970BD10B5D4
:1003700001F014FA01F02CFA01F04AFA01F074FAD3
:1003800001F0C2FA01F01AFB01F074FC10BD00008C
:100390001CB5FF2031300090012168460171002119
:1003A0008171032141710121C17169460920C00693
:1003B00000F016F8064800906946064800F010F86C
:1003C000054800906946054800F00AF81CBD000089
:1003D00007EC00000004004861030000000800482A
:1003E000F0B50A4600210023002400BF3DE00125AE
:1003F0008D402B4615681D402C469C4234D1157902
:10040000012D02D01579022D16D185684F000326E3
:10041000BE40B543856055794E00B540866835438A
:100420008560858801268E40B543858085889679CC
:100430008E40B6B23543858005684F000326BE4026
:10044000B543056015794E00B54006683543056033
:10045000C5684F000326BE40B543C560D5794E0040
:10046000B540C6683543C560491C1029BFD3F0BDEF
:10047000F0B5002300244D07EE0E1546B5402B467F
:10048000CD10AE0005462035AD594E07F70E0F26AC
:10049000BE40B543CE10B60007462037BD51CD1043
:1004A000AE003D46AD591D432C46CD10AD003E4635
:1004B0007451F0BD018570478161704700BFFEE750
:1004C00070B505460C46012D06D0022D12D0032D25
:1004D0001ED0042D36D127E0002C05D0012141206B
:1004E000C00001F0FDF804E000214120C00001F04F
:1004F000F7F828E0002C05D001218120800001F0D0
:10050000EFF804E000218120800001F0E9F81AE012
:10051000002C04D001210E4801F0E2F803E0002194
:100520000B4801F0DDF80EE0002C05D001210D2074
:10053000800101F0D5F804E000210D20800101F0D8
:10054000CFF800E000BF00BF01F0D7F870BD000099
:100550000202000070B505460C46012D02D0022DA6
:100560001CD10DE0002C05D001216120C00001F05C
:10057000B7F804E000216120C00001F0B1F80EE0FE
:10058000002C05D00121C120800001F0A9F804E071
:100590000021C120800001F0A3F800E000BF00BFEF
:1005A00001F0ABF870BD704700218278002A27D097
:1005B000184A03231B02D21803789B109B00D158C2
:1005C00002789207D30EFF229A400B4693431946B6
:1005D00042789207120E03789B07DB0E9A40114374
:1005E0000C4A03231B02D21803789B109B00D150A6
:1005F0000278D306DB0E01229A40064B1A6007E010
:100600000278D306DB0E01229A40024B80331A6037
:100610007047000000E100E010B5002819DA1A4A1E
:1006200003071B0F083B9B089B00D2588307DC0E77
:10063000FF23A3409A438B071B0E8407E40EA340BD
:100640001A43114B0407240F083CA408A4001A51B4
:1006500018E00E4A03231B02D21883089B00D258CD
:100660008307DC0EFF23A3409A438B071B0E8407EE
:10067000E40EA3401A43054B032424021B198408EB
:10068000A4001A5110BD00001CED00E000E100E0E4
:1006900008B51B216846017000214170012181705D
:1006A000FFF782FF08BD70B505460C46012D02D04C
:1006B000022D1CD10DE0002C05D001211920400194
:1006C00001F00EF804E000211920400101F008F8C3
:1006D0000EE0002C05D001213120000101F000F8CE
:1006E00004E000213120000100F0FAFF00E000BF2B
:1006F00000BF01F002F870BD70470000002905D06E
:10070000054A52690243044B5A6104E0024A5269A5
:100710008243014B5A61704700100240002905D006
:10072000054A92690243044B9A6104E0024A9269C5
:100730008243014B9A6170470010024010B50121BD
:1007400007204004FFF7DAFF10BD0000FEB50446A5
:1007500000250026002001900090002750484068A6
:100760000C2108400546002D04D0042D05D0082D8D
:1007700028D105E04B48206027E04A48206024E06B
:10078000474840680F2189040840064644484068AD
:100790000121090408400190B00C861C0198002832
:1007A00003D14148704320600BE03D48C06A000718
:1007B000000F401C00903B480099FFF799FC7043E4
:1007C000206002E03748206000BF00BF3448406826
:1007D000F021084005462D093448475D2068F8405F
:1007E00060602F48406807210902084005462D0A2D
:1007F0002E48475D6068F840A0602948006BFF21E3
:1008000001310840884202D02948E0600DE02448C8
:100810004068012189030840884203D0A06840084D
:10082000E06002E0A0688008E0601D48006B4021A5
:100830000840402802D01F48206102E00120C00388
:1008400020611748006B10210840102802D015487D
:10085000606101E0206860611148006B8007800FD3
:10086000002802D1A068A06119E00D48006B800744
:10087000800F012802D12068A06110E00848006BB9
:100880008007800F022802D18003A06107E004489E
:10089000006B8007800F032801D10248A061FEBDD4
:1008A0000010024000127A0000093D0024000020E0
:1008B000809FD5001280000070B505460C46012DC2
:1008C00006D0022D10D0032D1AD0042D32D123E0F2
:1008D000002C04D001211948FFF7EEFD03E00121AF
:1008E0001648FFF7E7FD26E0002C04D0042113484A
:1008F000FFF7E2FD03E004211048FFF7DBFD1AE0FB
:10090000002C04D020210E48FFF7D6FD03E0202163
:100910000B48FFF7CFFD0EE0002C05D00121890226
:100920000648FFF7C9FD04E0012189020348FFF7EB
:10093000C1FD00E000BF00BF70BD00000004004822
:1009400000080048704710B5044600212046FFF714
:10095000B7FD00F05BFC10BD10B504460121204638
:10096000FFF7AEFD00F052FC10BD00000CB50020FA
:1009700001900090314800680121090408432F4983
:10098000086000BF2D48006801214904084000901C
:100990000198401C01900098002804D1052109020B
:1009A00001988842EED12548006801214904084099
:1009B000002802D00120009001E000200090009863
:1009C000012839D111201E4908601C4840681B4984
:1009D0004860084640684860084640683F2109046E
:1009E00088431649486008464068112109040843B5
:1009F00012494860084600680121090608430F496A
:100A0000086000BF0D480068012149060840002821
:100A1000F8D00A48406880088000084948600846C5
:100A20004068022108430549486000BF0348406808
:100A30000C2108400828F9D10CBD0000001002402C
:100A40000020024010B57D21C9000C480068FFF766
:100A50004FFB0446601E0A49884200D90CE0601E24
:100A6000084948610321081FFFF7D6FD002005490A
:100A700088610720086100BF10BD0000340000201D
:100A8000FFFFFF0000E000E007480068401C064947
:100A9000086006480068002804D004480068401E2A
:100AA0000249086070470000000000200400002098
:100AB00010B51B4800680121084319490860084621
:100AC00040681849084016494860084600681649B9
:100AD00008401349086008460068012189048843DA
:100AE0000F490860084640683F21090488430C49C3
:100AF00048600846C06A00090001C8620846006BE9
:100B0000FF2154318843064908630846406B40087A
:100B10004000486300208860FFF728FF10BD0000F8
:100B2000001002400CB8FFF8FFFFF6FE10B50C49AC
:100B30000C4800F076F8002806D00B4800F0FAFFC9
:100B40000749084800F058F80849064800F069F8D5
:100B5000002803D00549034800F04EF810BD0000FE
:100B60000501050000380140B40900200601060017
:100B700000B589B001214804FFF7C0FD01218803B9
:100B8000FFF7CCFD01220921C806FFF771FC012205
:100B90000A210920C006FFF76BFC032040020790E2
:100BA000022108A8017003214170002181700121F8
:100BB000C17007A90920C006FFF712FCE12040021E
:100BC0000190002002900390049006900C20059064
:100BD00001A9074800F06EF801220649044800F018
:100BE00047F80121024800F010F809B000BD0000EC
:100BF000003801400501050010B5002300220B0C50
:100C000001249C402246026210BD002904D00268E3
:100C100001231A43026003E0026852085200026096
:100C2000704770B502460B460024002100250020C5
:100C30001E04350ED9B201268E403146012D02D157
:100C40001668314006E0022D02D15668314001E0BD
:100C5000966831401C0C0126A6403446D6693440C3
:100C6000002903D0002C01D0012000E0002070BD3D
:100C7000F8B50346002400260096002500201846FB
:100C80000E04340ECEB200960127009EB7403D46BA
:100C9000022C01D1001D02E0032C00D10830002AF3
:100CA00003D006682E43066002E00668AE43066085
:100CB000F8BD0000F0B589B005460E4600240020BE
:100CC000089000BF00BF28684008400028606C689A
:100CD00003210903204688430446B06804436C603E
:100CE0002C682F480440F168706808433169084354
:100CF00004432C60AC680321090220468843044663
:100D000070690443AC606846FFF720FD25488542C2
:100D100002D10698089001E0029808902868012105
:100D2000C9030840002809D0326851001923089AE5
:100D30005A431046FFF7DCF9074608E03268910095
:100D40001923089A5A431046FFF7D2F9074664213F
:100D50003846FFF7CDF90401200964214843381AC9
:100D6000079028680121C903084000280AD0079984
:100D7000C900084632306421FFF7BAF94007400F36
:100D8000044309E007990901084632306421FFF75E
:100D9000AFF90007000F0443AC8109B0F0BD0000BB
:100DA000F3E9FFFF0038014010B582484078002881
:100DB00000D110BD8048018880480A1A81427DD048
:100DC00017DC7F4A881A914260D00BDC7D480818F6
:100DD000002823D001282FD0FF38FF380238002800
:100DE0006DD137E0FF2870D0FF3801380028F7D1E7
:100DF00070E001214902501A8A4270D006DC012AB3
:100E000076D0022A79D0032AEAD17BE0012869D082
:100E1000FF38FF3802380028E2D18CE066480079BC
:100E2000012802D16849487005E06348007902282A
:100E300001D1654948708BE05F480079012802D1F3
:100E40006149887005E05C480079022801D15E495B
:100E500088707DE05D484078002813D156480079BD
:100E600003280FDA544840797F280BDA524800797A
:100E700056494870504840795549487001205549B5
:100E8000487002E000205349487061E04F48807884
:100E9000002816D148480079032812DA46484079DC
:100EA0007F280EDA444800794849887042484079E2
:100EB0004749887001204749887005E013E046E003
:100EC00003E000204349887042E03B4800794249F2
:100ED00008703DE0384800794049087038E016E075
:100EE00006E00AE01DE0344800793D4948702FE0F3
:100EF000314800793A4988702AE02F48007938490A
:100F0000C87025E02C4800793549087120E0354843
:100F10000078002804D10120324908703249087055
:100F200016E030484078002804D101202D4948704F
:100F30002D4908700CE02D480078002803D10120CD
:100F40002B49087002E000202949087000E000BF2A
:100F500000BF194800880012F22821D116480078F5
:100F600000281DDD14480078132819DA124800788B
:100F70002049087020480978405C00280BD10E48B1
:100F800001791D481B4A1278815401211B48194AD6
:100F90001278815404E000201849164A12788854C7
:100FA000812189000448FFF7C0F802480021018030
:100FB00000BFFEE656000020DC09002001F500001D
:100FC00002F30000FF0EFFFF0D00002010000020C4
:100FD00013000020190000201D0000201E0000202A
:100FE0001F000020080000200A0000205C000020F4
:100FF0005B0000205A000020480100205B01002017
:1010000008B500200090794879490860EBE07948FC
:101010004078012800D1E7E075480068002812D127
:10102000012074494870812189007348FFF77DF8D9
:10103000002072490880724908806E4908700120BA
:1010400070490870D0E00121684600F086FD002854
:1010500000D1C9E067480078030000F0E8F8050413
:101060001B345980B2006846007855280BD161487E
:101070000078401C5F490870002061490880032007
:101080006049087005E004205E4908700120594954
:101090004870A7E068460078AA280BD15548007828
:1010A000401C5449087000205549088005205549C6
:1010B000087007E001204F494870002008700620A2
:1010C000504908708EE068460078F0280DDD6846CB
:1010D000007800024949088046480078401C45498C
:1010E000087007204749087011E0812189004248B3
:1010F000FFF71BF800204149088041490880012082
:101100003C4948700020087008203E49087069E09A
:101110003A480088694609780843384908800846F3
:1011200000883549088033480078401C31490870F0
:101130000920344908703048008800280ED18121E8
:1011400089002D48FEF7F1FF00202C4908802C492A
:1011500008800120274948700020087042E0684656
:10116000007800280FDD68460078CC280BD0684650
:101170000178234802880088401C214B18801E48B3
:10118000001D81541CE068460078CC2809D100205D
:101190001A4908801A4908801649087001204870C9
:1011A0000EE0812189001448FEF7BFFF002013499B
:1011B00008801349088001200E49487000200870FB
:1011C00010E0812189000C48FEF7AFFF00200B4999
:1011D00008800D4908800A490880064908700120E6
:1011E000487000BF00BF12E700BF08BDB80B000089
:1011F0000400002056000020DC0900205E000020D2
:1012000062000020580000206000002000B5A1B05E
:10121000802101A8FEF789FFAA2168460171BB2140
:101220004171022101A800F0AFFC21B000BD30B433
:101230007446641E2578641CAB4204D3635D5B0076
:10124000E31830BC18471D46F8E702E008C8121F33
:1012500008C1002AFAD170477047002001E001C19F
:10126000121F002AFBD1704710B504467D21C9002A
:101270006143084600F001F810BD70B50446002532
:101280003021614308460721FEF732FF064600BFC2
:10129000681C0546B04200D970BDF9E710B5044698
:1012A0001748005D012812D101212046FEF75AFFA0
:1012B0001448005D022807D10C216143124A8818A6
:1012C0007D21090100F01CFD00200D4908550C216D
:1012D00061430D4A881800F0F1FC00280ED000216F
:1012E0002046FEF73FFF0C216143074A881800F0B3
:1012F00011FD002003490855FFF788FF10BD0000CD
:101300005B010020480100206400002010B5044665
:101310001748005D012812D101212046FEF722FF67
:101320001448005D012807D10C216143124A881836
:10133000FF21F53100F0E4FC00200D4908550C2197
:1013400061430D4A881800F0B9FC00280ED0002136
:101350002046FEF707FF0C216143074A881800F07A
:10136000D9FC002003490855FFF750FF10BD0000CD
:101370005B010020480100206400002010B5FFF749
:10138000DDF9FFF705F8FF2101310920C006FFF75D
:1013900093F8012149022248FFF78EF8FF2101311D
:1013A0001F48FFF789F801211D48FFF785F8102134
:1013B0000920C006FFF780F820210920C006FFF7AA
:1013C0007BF840211648FFF775F80121C90315483D
:1013D000FFF770F8012189031248FFF76BF801212C
:1013E00049031048FFF766F820210D48FFF762F81F
:1013F00001210C48FFF75EF802210A48FFF75AF86E
:1014000004210848FFF756F8012189020548FFF733
:1014100051F80121C9020348FFF74CF810BD000044
:101420000008004800040048024A125C8A43014B4D
:101430001A5470474800002010B5FF2101310920DF
:10144000C006FFF737F8012149023F48FFF732F89D
:10145000FF2101313C48FFF72DF801213A48FFF701
:1014600029F810210920C006FFF724F80520FFF70E
:1014700004FF00245AE035480078802121410840CB
:10148000002804D040213048FFF716F803E040213F
:101490002D48FFF70FF82D48407880212141084062
:1014A000002805D00121C9032948FFF705F804E009
:1014B0000121C9032648FEF7FDFF244880788021DA
:1014C00021410840002805D0012189032048FEF76A
:1014D000F3FF04E0012189031D48FEF7EBFF1B48E1
:1014E000C078802121410840002805D0012149030E
:1014F0001748FEF7E1FF04E0012149031448FEF715
:10150000D9FF0520FFF7B9FE20210920C006FEF70C
:10151000D1FF0520FFF7B1FE20210920C006FEF70C
:10152000CBFF0520FFF7A9FE601CC4B2082CA2DB8C
:101530000520FFF7A2FE10210920C006FEF7BCFF20
:101540000520FFF79AFE10BD000800484800002063
:1015500000040048024A125C0A43014B1A547047C7
:101560004800002010B52248007801280CD1012144
:101570000320FEF7F7FD1F4800681F49486001205F
:10158000087000201A4908701B484068194909680A
:10159000081A1A49884209D900210120FEF7E2FD04
:1015A000002017490870FFF731FE20E0124840681C
:1015B00010490968081A1349884208D900210220F5
:1015C000FEF7D0FD01210846FEF7CCFD0FE00A48EA
:1015D000406808490968081A0B49884207D9002160
:1015E0000320FEF7BFFD01210220FEF7BBFD10BD69
:1015F0000A0000200000002070010020BC1B000039
:10160000080000204C0400002602000010B522480B
:10161000007801280CD101210320FEF7A3FD1F480B
:1016200000681F4948600120087000201A490870AE
:101630001B48406819490968081A1A49884209D99B
:1016400000210120FEF78EFD002017494870FFF7AA
:10165000DDFD20E01248406810490968081A134966
:10166000884208D900210220FEF77CFD01210846AE
:10167000FEF778FD0FE00A48406808490968081A33
:101680000B49884207D900210320FEF76BFD012199
:101690000220FEF767FD10BD0A00002000000020B8
:1016A00070010020442F0000080000204C040000BE
:1016B0002602000038B5044620126A4610705470A5
:1016C00051781078FFF7B0FE38BD38B504462012C7
:1016D0006A461070547051781078FFF73BFF38BDA0
:1016E00070B505460C46002C03D02846FFF7EDFFE9
:1016F00002E02846FFF7DEFF70BD10B5FFF79CFE45
:1017000010BDFFF79FF9FFF739FE00F017FB01212D
:101710001020FEF727FD01211120FEF723FD0121F6
:101720001220FEF71FFD7D20C000FFF79DFD002168
:101730001020FEF717FD00211120FEF713FD0021F8
:101740001220FEF70FFD3220FFF78EFD08E0FFF7B5
:1017500057FCFFF729FBFEF70AFE0520FFF78DFD7A
:10176000F5E7000010B5044600212046FEF79BFF78
:10177000002002490855FFF749FD10BD0D0000206B
:1017800010B5044601212046FEF78DFF00200249D6
:101790000855FFF73BFD10BD0D00002010B50124DA
:1017A00010E00A48005D012803D12046FFF7AEFD96
:1017B00006E00648005D022802D12046FFF76EFDD4
:1017C000601CC4B2132CECDB10BD000048010020EB
:1017D00010B50E484078012802D1FFF7D1FF06E08E
:1017E0000A484078022802D10120FFF7BBFF0748D2
:1017F0008078012803D10220FFF7C2FF05E00348EB
:101800008078022801D1FFF7ADFF10BD0D00002048
:1018100010B513484078012805D1124841780120BD
:1018200000F032F908E00E484078022804D10D4853
:101830004178012000F0D2F809488078012805D1CC
:1018400008488178022000F01FF908E004488078F9
:10185000022804D103488178022000F0BFF810BDAF
:10186000100000201300002010B525480078012842
:101870000ED10220FFF776FF00210220FEF76AFE5C
:1018800001210846FEF766FE00201D49087035E07C
:101890001B48007802280DD1FFF764FF00210220C9
:1018A000FEF758FE00210120FEF754FE00201449E7
:1018B000087023E01348007801280ED10220FFF7BA
:1018C00051FF00210120FEF745FE01210220FEF715
:1018D00041FE00200B49087010E00A4800780228F9
:1018E0000CD1FFF73FFF00210120FEF733FE00215E
:1018F0000220FEF72FFE00200249087010BD0000F4
:101900001D0000201E00002010B52B484078012843
:1019100005D1FFF721F80020274948704AE0264802
:101920004078022806D10120FFF70DF80020224957
:1019300048703FE020488078012806D10220FFF758
:101940000BF800201C49887034E01B48807802287E
:1019500005D1FEF7F8FF0020174988702AE01648E5
:10196000C078012806D10320FEF7F6FF00201249B7
:10197000C8701FE01048C078022806D10320FEF787
:10198000E2FF00200C49C87014E00B4800790128E0
:1019900006D10420FEF7E0FF00200749087109E0A6
:1019A00005480079022805D10420FEF7CCFF00206D
:1019B0000149087110BD00001F00002010B5064845
:1019C0000078012801D1FFF7CDFD034840780128B8
:1019D00001D1FFF71BFE10BD0800002070B50446C2
:1019E0000D462448005D012810D1002022490855E9
:1019F00000212046FEF760FF0C2161431F4A881832
:101A0000502100F07DF900201A4908550C2161434E
:101A10001A4A881800F052F9002819D00C216143A5
:101A2000164A881800F064F915480078002801D19A
:101A3000012000E0002012490870A11CC8B2104922
:101A40000978FEF739FF0C48005D401C0A4908552B
:101A50000948005D690088420AD10C216143074AA8
:101A6000881800F057F9002006490855FFF7CEFB0B
:101A700070BD000019000020160000208801002021
:101A80001C0000201000002070B504460D462448BC
:101A9000005D012810D1002022490855012120466F
:101AA000FEF70AFF0C2161431F4A8818502100F0FD
:101AB00027F900201A4908550C2161431A4A881851
:101AC00000F0FCF8002819D00C216143164A881850
:101AD00000F00EF915480078002801D1012000E03F
:101AE000002012490870A11CC8B210490978FEF7FD
:101AF000E3FE0C48005D401C0A4908550948005D9A
:101B0000690088420AD10C216143074A881800F015
:101B100001F9002006490855FFF778FB70BD000069
:101B20001900002016000020880100201C00002061
:101B30001000002030B504460025ED430AE000F017
:101B4000EDF80546681C002800D104E0E9B26068A1
:101B500000F06AF8F3E700BF30BDF8B504460D4663
:101B600026460AE000F020F80746781C002800D13D
:101B700005E03770761C6D1E00BF002DF2D100BF4E
:101B8000301B00900098F8BD70B503460C46002647
:101B90001D4604E0287800F0D9F86D1C641E002C66
:101BA000F8D1EE1A304670BD0020C043084949887C
:101BB000074A128891420AD005494988054A505C73
:101BC00003494988491C8905890D014A518070479C
:101BD000AC050020AC01002010B50D4C0D480E499D
:101BE00048600E488860084604600121890209485F
:101BF000FEF79BFA00200A490880488001218902EB
:101C00000648FEF792FA002006490880488010BD79
:101C10004C000020AC010020B4090020B0050020D9
:101C2000AC050020B009002001229202821812881F
:101C300081540122920282181288521C9205920D40
:101C400001239B02C3181A80012292028218128873
:101C500001239B02C3185B889A420AD10122920297
:101C600082185288521C9205920D01239B02C318C0
:101C70005A80704710B50E48007801280AD1FF211C
:101C8000F5310C4800F03CF80020094908700120AB
:101C900009490870074800F011F8002807D00548E6
:101CA00000F038F8FFF7B2FA00200349087010BDC1
:101CB0005B000020E00B00205C000020014608785B
:101CC000002800D17047087802280CD00748026825
:101CD0004868101A8B68984203D9022008700120C6
:101CE000F0E70020EEE70120ECE700000000002014
:101CF00082684168891841600121017070470000C5
:101D00008160034A1268426001220270704700003D
:101D10000000002000210170704700000020C04337
:101D20000549C96920221140002903D00249203108
:101D30008988C8B2704700000038014010B5FEF72E
:101D400017FFFEF7A5FCFFF747FF10BD014600BFD8
:101D50000548C069802210400028F9D00248203090
:101D60000181012070470000003801408C1D0008EF
:101D700000000020640000004A120008F01D000866
:101D8000640000208C0F00005A12000800000000C0
:101D9000B80B000000000000000000000000000080
:101DA0000000000000000000000000000000000033
:101DB00000000000010203040102030406070809F1
:101DC000006CDC02000000000000000001020304BF
:101DD0000607080900000000003801401B00000051
:101DE00000000000000000000000000000000000F3
:04000005080000D51A
:00000001FF
