:020000040800F2
:1000000058100020D5000008270600083D0500080C
:1000100000000000000000000000000000000000E0
:10002000000000000000000000000000C9090008F6
:100030000000000000000000790700080D0B000818
:10004000E7000008E7000008E7000008E7000008F4
:10005000E7000008E7000008E7000008E7000008E4
:10006000E7000008E7000008E7000008E7000008D4
:10007000E7000008E7000008E7000008E7000008C4
:10008000E7000008E700000800000000E7000008A3
:10009000E7000008E7000008E7000008E7000008A4
:1000A000E7000008E7000008E7000008C50B0008AB
:1000B000E700000800000000E70000080000000062
:1000C0000348854600F03CF8004800473D1C000806
:1000D000581000200448804704480047FEE7FEE728
:1000E000FEE7FEE7FEE7FEE7490B0008C100000857
:1000F00030B50B46014600202022012409E00D46C0
:10010000D5409D4205D31D469540491B2546954047
:1001100040191546521E002DF1DC30BDD2B201E06F
:100120000270401C491EFBD270470022F6E710B552
:1001300013460A4604461946FFF7F0FF204610BD55
:10014000064C0125064E05E0E36807CC2B430C3C2A
:1001500098471034B442F7D3FFF7B6FF8C2300085A
:10016000AC23000870B505460C462B0001F05FF982
:1001700013FA0B17232F3B47535F6D7B8997A5B36A
:10018000C1CFDDEBFA00002C04D00121802001F06A
:10019000A5FB03E00021802001F0A0FBE3E0002CA0
:1001A00004D00121402001F099FB03E00021402010
:1001B00001F094FBD7E0002C04D00121202001F0B5
:1001C0008DFB03E00021202001F088FBCBE0002C18
:1001D00004D00121102001F081FB03E00021102058
:1001E00001F07CFBBFE0002C04D00121082001F0CD
:1001F00075FB03E00021082001F070FBB3E0002C48
:1002000004D00121042001F069FB03E00021042057
:1002100001F064FBA7E0002C04D00121022001F0D2
:100220005DFB03E00021022001F058FB9BE0002C65
:1002300005D00121FF20813001F050FB04E00021B6
:10024000FF20813001F04AFB8DE0002C05D0012118
:10025000FF20413001F042FB04E00021FF2041304B
:1002600001F03CFB7FE0002C05D00121FF20213074
:1002700001F034FB04E00021FF20213001F02EFBCF
:1002800071E0002C05D00121FF20113001F026FB88
:1002900004E00021FF20113001F020FB63E0002C7E
:1002A00005D00121FF20093001F018FB04E00021F6
:1002B000FF20093001F012FB55E0002C05D0012190
:1002C000FF20053001F00AFB04E00021FF2005308B
:1002D00001F004FB47E0002C05D00121FF20033092
:1002E00001F0FCFA04E00021FF20033001F0F6FAEF
:1002F00039E0002C05D001210520C00101F0EEFA03
:1003000004E000210520C00101F0E8FA2BE0002CF8
:1003100005D001210920800101F0E0FA04E000216C
:100320000920800101F0DAFA1DE0002C05D001213E
:100330001120400101F0D2FA04E000211120400117
:1003400001F0CCFA0FE0002C06D0012121200001A1
:1003500001F0C4FA05E005E000212120000101F0D0
:10036000BDFA00E000BF00BF01F0C5FA70BD10B5D6
:1003700001F0AEFC01F0C6FC01F064FB01F08EFB65
:1003800001F0E0FC01F02EFD01F086FD01F04AFED7
:1003900010BD00001CB52D48009001216846017178
:1003A00000218171032141710121C1716946092038
:1003B000C00600F055F8264800906946254800F030
:1003C0004FF8254800906946244800F049F801217B
:1003D0004902224800F0B0F80221204800F0ACF8B1
:1003E000FF2101311D4800F0A7F801211B4800F052
:1003F000A3F8FF2101310920C00600F09DF801217A
:10040000C9020920C00600F097F80121090309205C
:10041000C00600F091F84021104800F08BF801214F
:10042000C9030C4800F086F801218903094800F04F
:1004300081F804210920C00600F07CF80121C903DD
:100440000920C00600F076F81CBD000004990000E9
:1004500007CC0000000400486303000000080048C7
:10046000F0B50A4600210023002400BF3DE001252D
:100470008D402B4615681D402C469C4234D1157981
:10048000012D02D01579022D16D185684F00032663
:10049000BE40B543856055794E00B540866835430A
:1004A0008560858801268E40B5438580858896794C
:1004B0008E40B6B23543858005684F000326BE40A6
:1004C000B543056015794E00B540066835430560B3
:1004D000C5684F000326BE40B543C560D5794E00C0
:1004E000B540C6683543C560491C1029BFD3F0BD6F
:1004F000F0B5002300244D07EE0E1546B5402B46FF
:10050000CD10AE0005462035AD594E07F70E0F262B
:10051000BE40B543CE10B60007462037BD51CD10C2
:10052000AE003D46AD591D432C46CD10AD003E46B4
:100530007451F0BD018570478161704700BFFEE7CF
:1005400070B505460C46012D06D0022D12D0032DA4
:100550001ED0042D36D127E0002C05D001214120EA
:10056000C00001F0BBF904E000214120C00001F00F
:10057000B5F928E0002C05D001218120800001F090
:10058000ADF904E000218120800001F0A7F91AE014
:10059000002C04D001210E4801F0A0F903E0002155
:1005A0000B4801F09BF90EE0002C05D001210D2035
:1005B000800101F093F904E000210D20800101F099
:1005C0008DF900E000BF00BF01F095F970BD00009B
:1005D0000202000070B505460C46012D02D0022D26
:1005E0001CD10DE0002C05D001216120C00001F0DC
:1005F00075F904E000216120C00001F06FF90EE000
:10060000002C05D00121C120800001F067F904E031
:100610000021C120800001F061F900E000BF00BFAF
:1006200001F069F970BD704700218278002A27D057
:10063000184A03231B02D21803789B109B00D15841
:1006400002789207D30EFF229A400B469343194635
:1006500042789207120E03789B07DB0E9A401143F3
:100660000C4A03231B02D21803789B109B00D15025
:100670000278D306DB0E01229A40064B1A6007E08F
:100680000278D306DB0E01229A40024B80331A60B7
:100690007047000000E100E010B5002819DA1A4A9E
:1006A00003071B0F083B9B089B00D2588307DC0EF7
:1006B000FF23A3409A438B071B0E8407E40EA3403D
:1006C0001A43114B0407240F083CA408A4001A5134
:1006D00018E00E4A03231B02D21883089B00D2584D
:1006E0008307DC0EFF23A3409A438B071B0E84076E
:1006F000E40EA3401A43054B032424021B1984086B
:10070000A4001A5110BD00001CED00E000E100E063
:1007100008B51B21684601700021417001218170DC
:10072000FFF782FF08BD70B505460C46012D02D0CB
:10073000022D1CD10DE0002C05D001211920400113
:1007400001F0CCF804E000211920400101F0C6F8C6
:100750000EE0002C05D001213120000101F0BEF88F
:1007600004E000213120000101F0B8F800E000BFF2
:1007700000BF01F0C0F870BD70470000002905D02F
:10078000054A52690243044B5A6104E0024A526925
:100790008243014B5A61704700100240002905D086
:1007A000054A92690243044B9A6104E0024A926945
:1007B0008243014B9A6170470010024010B501213D
:1007C00007204004FFF7DAFF10BD0000FEB5044625
:1007D0000025002600200190009000275048406826
:1007E0000C2108400546002D04D0042D05D0082D0D
:1007F00028D105E04B48206027E04A48206024E0EB
:10080000474840680F21890408400646444840682C
:100810000121090408400190B00C861C01980028B1
:1008200003D14148704320600BE03D48C06A000797
:10083000000F401C00903B480099FFF759FC7043A3
:10084000206002E03748206000BF00BF34484068A5
:10085000F021084005462D093448475D2068F840DE
:1008600060602F48406807210902084005462D0AAC
:100870002E48475D6068F840A0602948006BFF2162
:1008800001310840884202D02948E0600DE0244848
:100890004068012189030840884203D0A0684008CD
:1008A000E06002E0A0688008E0601D48006B402125
:1008B0000840402802D01F48206102E00120C00308
:1008C00020611748006B10210840102802D01548FD
:1008D000606101E0206860611148006B8007800F53
:1008E000002802D1A068A06119E00D48006B8007C4
:1008F000800F012802D12068A06110E00848006B39
:100900008007800F022802D18003A06107E004481D
:10091000006B8007800F032801D10248A061FEBD53
:100920000010024000127A0000093D003B00002048
:10093000809FD5001280000070B505460C46012D41
:1009400006D0022D10D0032D1AD0042D32D123E071
:10095000002C04D001211A48FFF7EEFD03E001212D
:100960001748FFF7E7FD26E0002C04D004211448C7
:10097000FFF7E2FD03E004211148FFF7DBFD1AE079
:10098000002C04D020210F48FFF7D6FD03E02021E2
:100990000C48FFF7CFFD0EE0002C05D001218902A5
:1009A0000748FFF7C9FD04E0012189020448FFF769
:1009B000C1FD00E000BF00BF00F09DFF70BD000062
:1009C0000004004800080048704710B504460021A4
:1009D0002046FFF7B5FD00F019FD10BD10B5044627
:1009E00001212046FFF7ACFD00F010FD10BD000016
:1009F0000CB50020019000903148006801210904E5
:100A000008432F49086000BF2D48006801214904B0
:100A1000084000900198401C01900098002804D1E3
:100A20000521090201988842EED12548006801217C
:100A300049040840002802D00120009001E0002075
:100A400000900098012839D111201E4908601C48E7
:100A500040681B494860084640684860084640684E
:100A60003F2109048843164948600846406811211F
:100A70000904084312494860084600680121090634
:100A800008430F49086000BF0D480068012149066E
:100A900008400028F8D00A484068800880000849CB
:100AA000486008464068022108430549486000BF85
:100AB000034840680C2108400828F9D10CBD00000B
:100AC000001002400020024010B57D21C9000C48F2
:100AD0000068FFF70DFB0446601E0A49884200D9F2
:100AE0000CE0601E084948610321081FFFF7D4FD90
:100AF0000020054988610720086100BF10BD000083
:100B00004C000020FFFFFF0000E000E00B48006801
:100B10000B49884205D209480068401C0749086013
:100B200002E000200549086006480088002804D03B
:100B300004480088401E03490880704700000020D8
:100B4000FFFF8F000400002010B51B480068012142
:100B50000843194908600846406818490840164982
:100B6000486008460068164908401349086008466E
:100B700000680121890488430F49086008464068DD
:100B80003F21090488430C4948600846C06A0009AF
:100B90000001C8620846006BFF21543188430649B2
:100BA00008630846406B40084000486300208860A6
:100BB000FFF71EFF10BD0000001002400CB8FFF848
:100BC000FFFFF6FE10B50C490C4800F076F800283F
:100BD00006D00B4801F0E2FA0749084800F058F83F
:100BE0000849064800F069F8002803D00549034881
:100BF00000F04EF810BD000005010500003801406E
:100C0000200A00200601060000B589B00121480431
:100C1000FFF7B4FD01218803FFF7C0FD0122092180
:100C2000C806FFF765FC01220A210920C006FFF76C
:100C30005FFC032040020790022108A801700321F5
:100C40004170002181700121C17007A90920C006EF
:100C5000FFF706FCE1204002019000200290039083
:100C6000049006900C20059001A9074800F06EF84A
:100C700001220649044800F047F80121024800F02B
:100C800010F809B000BD0000003801400501050062
:100C900010B5002300220B0C01249C402246026266
:100CA00010BD002904D0026801231A43026003E04A
:100CB0000268520852000260704770B502460B4647
:100CC00000240021002500201E04350ED9B2012683
:100CD0008E403146012D02D11668314006E0022DCA
:100CE00002D15668314001E0966831401C0C012663
:100CF000A6403446D6693440002903D0002C01D0E8
:100D0000012000E0002070BDF8B503460024002655
:100D100000960025002018460E04340ECEB2009630
:100D20000127009EB7403D46022C01D1001D02E084
:100D3000032C00D10830002A03D006682E43066039
:100D400002E00668AE430660F8BD0000F0B589B069
:100D500005460E4600240020089000BF00BF28680A
:100D60004008400028606C6803210903204688433E
:100D70000446B06804436C602C682F480440F16856
:100D8000706808433169084304432C60AC68032150
:100D9000090220468843044670690443AC606846F3
:100DA000FFF714FD2548854202D10698089001E01E
:100DB0000298089028680121C9030840002809D03A
:100DC000326851001923089A5A431046FFF790F9E8
:100DD000074608E0326891001923089A5A431046E2
:100DE000FFF786F9074664213846FFF781F90401C9
:100DF000200964214843381A079028680121C90353
:100E0000084000280AD00799C900084632306421FA
:100E1000FFF76EF94007400F044309E00799090105
:100E2000084632306421FFF763F90007000F0443DE
:100E3000AC8109B0F0BD0000F3E9FFFF00380140CC
:100E400070B505460C462B0000F0F1FA0865051355
:100E5000212F3D4B5765002C05D001210920C001F1
:100E600000F03CFD04E000210920C00100F036FD47
:100E700052E0002C05D001211120800100F02EFD50
:100E800004E000211120800100F028FD44E0002C46
:100E900005D001212120400100F020FD04E00021C7
:100EA0002120400100F01AFD36E0002C05D0012180
:100EB0004120000100F012FD04E00021412000016A
:100EC00000F00CFD28E0002C05D001218120C0009D
:100ED00000F004FD04E000218120C00000F0FEFCD1
:100EE0001AE0002C04D001210D4800F0F7FC03E0CB
:100EF00000210B4800F0F2FC0EE0002C05D001218F
:100F00000748801E00F0EAFC04E000210448801E2F
:100F100000F0E4FC00E000BF00BF00F0ECFC70BD9E
:100F20000404000010B5B0484078002800D110BD7E
:100F3000AE480188AE4A881A91426ED022DCAD4A92
:100F4000881A91426AD012DCAB4A881A91424CD07E
:100F500006DCAA48081800282BD001287BD136E0EF
:100F6000012860D0FF3801380028F7D17CE0FF2845
:100F700072D0FF38013800286FD001286ED00228C7
:100F8000ECD18DE006286AD006DC030000F04FFAB1
:100F900006FC92979CA1A6FCFF380138002872D06D
:100FA000012871D0FF38013800286ED00128D5D132
:100FB000CEE08E480079012802D19149487005E0C1
:100FC0008A480079022801D18D494870DDE08748C0
:100FD0000079012802D18A49887005E083480079A8
:100FE000022801D186498870CFE0864840780028E1
:100FF00015D17E480079032811DA7C4840797F2892
:101000000DDA7A4800797F494870784840797E49FE
:10101000487001207D49487004E046E029E0002046
:101020007A494870B1E077488078002818D16F4835
:101030000079032814DA6D4840797F2810DA6B486C
:10104000007970498870694840796F49887001203B
:101050006E49887007E097E010E017E01BE042E07F
:1010600000206A49887090E06048007968490870FB
:101070008BE05E4800796749087086E05B4800793C
:101080006549487081E033E03CE045E0574800792D
:101090006149887079E0554800795F49C87074E00B
:1010A000524800795C4908716FE0504800795B490B
:1010B00048706AE04D4800795849887065E04B48AF
:1010C00000795649C87060E0484800795349087172
:1010D0005BE0464800795149487156E04348007941
:1010E0004E49887151E0414800794C49C8714CE043
:1010F0004B480078002804D101204949087049492B
:10110000087042E046484078002804D10120444954
:1011100048704449087038E043484078002813D1AB
:101120003248007903280FDA304840797F280BDAFB
:101130002E4800793C4948702C4840793B4948701A
:1011400001203B49487002E00020394948701CE00A
:1011500035488078002813D12448007903280FDA15
:10116000224840797F280BDA204800792E49887080
:101170001E4840792D49887001202D49887002E071
:1011800000202B49887000E000BF00BF174800888E
:101190000012F2281DD115480078002819D01348F4
:1011A00000782449087024480978405C00280BD155
:1011B0000E48007920491F4A1278885401211F489F
:1011C0001C4A1278815404E000201C49194A127804
:1011D0008854812189000548FEF7A7FF02480021B5
:1011E000018000BFA3E6000072000020480A002032
:1011F00001F6000002F4000001F30000FF0EFFFF03
:101200000C0000202B0000202E00002034000020C5
:101210001C0000201D0000201E00002023000020D4
:1012200007000020090000200F000020120000200D
:1012300018000020740000206001002073010020CD
:1012400008B5002000906A486A490880CDE06A48E5
:101250004078012800D1C9E066480088002803D101
:10126000012065494870C1E00121684600F0A9FFEE
:10127000002800D1BAE060480078030000F0D7F8F9
:1012800005041528496FA30068460078552808D141
:1012900059480078401C5849087000205749088078
:1012A00002E00120544948709EE068460078AA2870
:1012B00008D151480078401C4F49087000204F4920
:1012C000088004E001204C494870002008708BE041
:1012D00068460078F0280ADD684600780002484930
:1012E000088045480078401C4349087010E081217F
:1012F00089004448FEF719FF00204149088042490F
:1013000008803E49088001203B4948700020087051
:101310006AE03B48008869460978084338490880F4
:10132000084600883749088033480078401C324915
:10133000087034480088002810D181218900314884
:10134000FEF7F3FE00202E4908802F4908802B4924
:1013500008800120284948700020087044E0684651
:10136000007800280FDD68460078CC280BD068464E
:101370000178224802880088401C204B18802148B0
:10138000001D81541EE068460078CC280BD1002057
:101390001B4908801C4908801849088016490870B4
:1013A000012048700EE0812189001648FEF7BDFE3D
:1013B0000020134908801149088001200E49487017
:1013C0000020087010E0812189000E48FEF7ADFE74
:1013D00000200B4908800C4908800849088006490C
:1013E00008700120487000BF00BF30E700BF08BD93
:1013F000B80B000004000020720000207A000020DA
:1014000076000020480A00207800002000B5A1B036
:10141000802101A8FEF789FEAA2168460171BB213F
:101420004171022101A800F0E3FE21B000BD30B4FB
:101430007446641E2578641CAB4204D3635D5B0074
:10144000E31830BC18471D46F8E702E008C8121F31
:1014500008C1002AFAD170477047002001E001C19D
:10146000121F002AFBD1704710B504467D21C90028
:101470006143084600F001F810BD70B50446002530
:101480003021614308460721FEF732FE064600BFC1
:10149000681C0546B04200D970BDF9E710B5044696
:1014A0001748005D012812D101212046FEF75AFE9F
:1014B0001448005D022807D10C216143124A8818A4
:1014C0007D21090100F02CFF00200D4908550C2159
:1014D00061430D4A881800F001FF00280ED000215A
:1014E0002046FEF73FFE0C216143074A881800F0B2
:1014F00021FF002003490855FFF788FF10BD0000B9
:1015000073010020600100207C00002010B504461B
:101510001748005D012812D101212046FEF722FE66
:101520001448005D012807D10C216143124A881834
:10153000FF21F53100F0F4FE00200D4908550C2183
:1015400061430D4A881800F0C9FE00280ED0002122
:101550002046FEF707FE0C216143074A881800F079
:10156000E9FE002003490855FFF750FF10BD0000B9
:1015700073010020600100207C00002010B50221D2
:101580000C48FEF7D7FF0121C9020A48FEF7D2FF37
:1015900001210848FEF7CEFF20210748FEF7CAFFC9
:1015A00004210448FEF7C6FF012189020148FEF725
:1015B000C1FF10BD000400480008004810B5FFF747
:1015C000FDF8FEF7E7FE00F003F8FFF7D7FF10BDC8
:1015D00010B500200449087048708870C870087100
:1015E00000F00CF810BD000060000020024A125C00
:1015F0008A43014B1A5470476000002010B5012146
:1016000049025048FEF796FF02214E48FEF792FF2E
:10161000FF2101314B48FEF78DFF01214948FEF7BC
:1016200089FFFF2101310920C006FEF783FF012158
:10163000C9020920C006FEF77DFF0520FFF71DFF48
:10164000002470E0404800788021214108400028B3
:1016500004D040213B48FEF76FFF03E040213948AA
:10166000FEF768FF38484078802121410840002873
:1016700005D00121C9033548FEF75EFF04E00121D2
:10168000C9033248FEF756FF2F4880788021214158
:101690000840002805D0012189032C48FEF74CFFA3
:1016A00004E0012189032948FEF744FF2648C07859
:1016B000802121410840002805D004210920C006CE
:1016C000FEF73AFF04E004210920C006FEF732FFCE
:1016D0001D480079802121410840002806D00121C1
:1016E000C9030920C006FEF727FF05E00121C90351
:1016F0000920C006FEF71EFF0520FFF7BEFE0121F0
:1017000009030920C006FEF715FF0520FFF7B5FE07
:10171000012109030920C006FEF70EFF0520FFF78F
:10172000ACFE601CC4B2082C8CDB0520FFF7A5FEC4
:101730000121C9020920C006FEF7FEFE0520FFF7C1
:101740009CFE10BD00080048600000200004004816
:10175000024A125C0A43014B1A5470476000002091
:1017600010B52248007801280CD101210220FEF793
:10177000F9FC1F4800681F494860012008700020DC
:101780001A4908701B48406819490968081A1A491B
:10179000884209D900210120FEF7E4FC0020174906
:1017A0000870FFF733FE20E01248406810490968CE
:1017B000081A1349884208D900210320FEF7D2FCF9
:1017C00001210846FEF7CEFC0FE00A4840680849B0
:1017D0000968081A0B49884207D900210220FEF740
:1017E000C1FC01210320FEF7BDFC10BD0900002053
:1017F0000000002088010020BC1B00000700002022
:101800004C0400002602000010B522480078012890
:101810000CD101210220FEF7A5FC1F4800681F49DA
:1018200048600120087000201A4908701B48406871
:1018300019490968081A1A49884209D90021012062
:10184000FEF790FC002017494870FFF7DFFD20E00D
:101850001248406810490968081A1349884208D993
:1018600000210320FEF77EFC01210846FEF77AFCEA
:101870000FE00A48406808490968081A0B4988427D
:1018800007D900210220FEF76DFC01210320FEF79D
:1018900069FC10BD09000020000000208801002024
:1018A000442F0000070000204C0400002602000026
:1018B00038B5044620126A4610705470517810787A
:1018C000FFF794FE38BD38B5044620126A46107002
:1018D000547051781078FFF73BFF38BD70B505465E
:1018E0000C46002C03D02846FFF7EDFF02E0284607
:1018F000FFF7DEFF70BD10B5FFF780FE10BD0000E2
:1019000070B504460D464748005D012812D10020FD
:10191000454908550C216143444A8818FF219131FB
:1019200000F0FEFC4B21C900414800F0F9FC00200A
:101930003C4908550C2161433C4A881800F0CEFC14
:10194000002817D00C216143384A881800F0E0FCC9
:10195000601E3849085C002801D1012100E0002107
:10196000601E344A1154621E324B995CA21CD0B2E4
:10197000FEF7E2FF2E4800F0B1FC00281AD00C213F
:1019800061432D4A8818FF21913100F0C9FC284895
:1019900000F0D0FC601E274A115C2046FEF7CCFF09
:1019A000601E2449095C254A11541F48005D401CF3
:1019B0001D4908550C2161431F4A881800F08EFC10
:1019C000002819D00C2161431B4A881800F0A0FCA4
:1019D000601E1A49085C002801D1012100E00021A5
:1019E000601E164A1154115C2046FEF7A5FF0E48F2
:1019F000005D401C0C4908550B48005DA84210D101
:101A00000C2161430C4A881800F094FC0C216143BE
:101A1000064A881800F08EFC002009490855FFF797
:101A2000F5FC70BD3400002031000020E8010020EA
:101A30000C02002039000020C401002037000020E3
:101A40002B00002010B513484078012805D112481A
:101A50004178012000F04EF808E00E484078022856
:101A600004D10D4841780120FFF74AFF09488078EA
:101A7000012805D108488178022000F03BF808E0F1
:101A800004488078022804D1034881780220FFF7B7
:101A900037FF10BD2B0000202E00002010B513488A
:101AA0004078012805D112484178012000F020FB40
:101AB00008E00E484078022804D10D484178012002
:101AC00000F0C0FA09488078012805D108488178DB
:101AD000022000F00DFB08E004488078022804D1C1
:101AE00003488178022000F0ADFA10BD0F000020FD
:101AF0001200002070B504460D464848005D0128DC
:101B000012D10020464908550C216143454A8818E6
:101B1000FF21913100F004FC4B21C900424800F044
:101B2000FFFB00203D4908550C2161433D4A8818C0
:101B300000F0D4FB002814D00C216143394A8818E6
:101B400000F0E6FB601E3949085C002801D1012144
:101B500000E00021601E354A1154115C2046FEF75A
:101B6000EBFE314800F0BAFB00281BD00C2161438A
:101B70002F4A8818FF21913100F0D2FB2A4800F04B
:101B8000D9FB621E294B995CA21CD0B2FEF7D4FE91
:101B9000601E2649095C274A11542148005D401CFB
:101BA0001F4908550C216143214A881800F096FB13
:101BB00000281CD00C2161431D4A881800F0A8FBA6
:101BC000601E1C49085C002801D1012100E00021B1
:101BD000601E184A1154621E164B995CA21CD0B2AA
:101BE000FEF7AAFE0E48005D401C0D4908550C4842
:101BF000005DA84210D10C2161430A4A881800F008
:101C000099FB0C2161430A4A881800F093FB0020DD
:101C100009490855FFF7FAFB70BD000034000020A9
:101C200031000020C40100200C02002037000020F9
:101C3000E8010020390000202B000020FEF744FFBF
:101C4000FFF7BCFC00F08AFB09201249087011E084
:101C5000012110480078FEF785FAC820FFF704FC40
:101C600000210C480078FEF77DFA0A480078401CF5
:101C700008490870074800781328E9DB08E0FFF7F7
:101C8000DFFAFFF74FF9FEF772FB0520FFF7F5FBD0
:101C9000F5E700000600002010B5044600212046AC
:101CA000FEF741FD002002490855FFF7AFFB10BDCC
:101CB0000C00002010B5044601212046FEF733FD3C
:101CC000002002490855FFF7A1FB10BD0C000020C1
:101CD00010B5012410E00A48005D012803D1204618
:101CE000FFF714FC06E00648005D022802D12046FA
:101CF000FFF7D4FB601CC4B2132CECDB10BD00005A
:101D00006001002010B50E484078012802D1FFF78D
:101D1000D1FF06E00A484078022802D10120FFF7EF
:101D2000BBFF07488078012803D10220FFF7C2FFDC
:101D300005E003488078022801D1FFF7ADFF10BD10
:101D40000C00002010B52548007801280ED1022093
:101D5000FFF7A2FF00210220FEF73CFC012108460C
:101D6000FEF738FC00201D49087035E01B4800785C
:101D700002280DD1FFF790FF00210220FEF72AFC78
:101D800000210120FEF726FC00201449087023E002
:101D90001348007801280ED10220FFF77DFF0021B3
:101DA0000120FEF717FC01210220FEF713FC0020A2
:101DB0000B49087010E00A48007802280CD1FFF7A0
:101DC0006BFF00210120FEF705FC00210220FEF739
:101DD00001FC00200249087010BD00001C0000201A
:101DE0001D00002010B52B484078012805D1FEF7D2
:101DF000F5FD0020274948704AE02648407802282F
:101E000006D10120FEF7E1FD0020224948703FE0A5
:101E100020488078012806D10220FEF7DFFD00204F
:101E20001C49887034E01B488078022805D1FEF7F1
:101E3000CCFD0020174988702AE01648C078012898
:101E400006D10320FEF7CAFD00201249C8701FE02A
:101E50001048C078022806D10320FEF7B6FD002006
:101E60000C49C87014E00B480079012806D1042001
:101E7000FEF7B4FD00200749087109E00548007924
:101E8000022805D10420FEF7A0FD002001490871B9
:101E900010BD00001E00002010B5614840780128E8
:101EA00009D101210846FEF7CBFFFFF7AFFA00206A
:101EB0005B494870B3E05A484078022809D10021B4
:101EC0000120FEF7BDFFFFF7A1FA0020544948703A
:101ED000A5E053488078012809D101210220FEF7AE
:101EE000AFFFFFF793FA00204D49887097E04C4808
:101EF0008078022808D10021FEF7A2FFFFF786FABA
:101F00000020474988708AE04548C078012809D1F7
:101F100001210320FEF794FFFFF778FA00204049E3
:101F2000C8707CE03E48C078022809D10021032017
:101F3000FEF786FFFFF76AFA00203949C8706EE0A5
:101F400037480079012809D101210420FEF778FFE4
:101F5000FFF75CFA00203249087160E030480079F0
:101F6000022809D100210420FEF76AFFFFF74EFA8C
:101F700000202B49087152E029484079012809D1F5
:101F800001210520FEF75CFFFFF740FA00202449FD
:101F9000487144E022484079022809D100210520F7
:101FA000FEF74EFFFFF732FA00201D49487136E078
:101FB0001B488079012809D101210620FEF740FF46
:101FC000FFF724FA00201649887128E01448807928
:101FD000022809D100210620FEF732FFFFF716FA8A
:101FE00000200F4988711AE00D48C079012809D1F5
:101FF00001210720FEF724FFFFF708FA0020084917
:10200000C8710CE00648C079022808D100210720D9
:10201000FEF716FFFFF7FAF900200149C87110BD5D
:102020002300002010B506480078012801D1FFF7F1
:1020300097FB03484078012801D1FFF7E5FB10BD6D
:102040000700002070B504460D462448005D0128B5
:1020500010D100202249085500212046FEF76CFCD3
:102060000C2161431F4A8818502100F059F90020C3
:102070001A4908550C2161431A4A881800F02EF9B4
:10208000002819D00C216143164A881800F040F945
:1020900015480078002801D1012000E000201249F5
:1020A0000870A11CC8B210490978FEF745FC0C481D
:1020B000005D401C0A4908550948005D69008842D6
:1020C0000AD10C216143074A881800F033F9002037
:1020D00006490855FFF79AF970BD00001800002066
:1020E00015000020A00100201B0000200F00002090
:1020F00070B504460D462448005D012810D100202B
:102100002249085501212046FEF716FC0C216143A7
:102110001F4A8818502100F003F900201A49085579
:102120000C2161431A4A881800F0D8F8002819D009
:102130000C216143164A881800F0EAF81548007827
:10214000002801D1012000E0002012490870A11CE4
:10215000C8B210490978FEF7EFFB0C48005D401C3F
:102160000A4908550948005D690088420AD10C21D6
:102170006143074A881800F0DDF800200649085539
:10218000FFF744F970BD0000180000201500002082
:10219000A00100201B0000200F00002030B50446E5
:1021A0000025ED430AE000F0C9F80546681C002848
:1021B00000D104E0E9B2606800F06AF8F3E700BF1C
:1021C00030BDF8B504460D4626460AE000F020F87A
:1021D0000746781C002800D105E03770761C6D1E7C
:1021E00000BF002DF2D100BF301B00900098F8BD59
:1021F00070B503460C4600261D4604E0287800F022
:10220000B5F86D1C641E002CF8D1EE1A304670BD76
:102210000020C04308494988074A128891420AD0E1
:1022200005494988054A505C03494988491C890584
:10223000890D014A518070471806002018020020BD
:1022400010B50D4C0D480E4948600E488860084690
:102250000460012189020948FDF767FF00200A494F
:1022600008804880012189020648FDF75EFF0020B2
:1022700006490880488010BD680000201802002030
:10228000200A00201C060020180600201C0A00203E
:10229000012292028218128881540122920282182D
:1022A0001288521C9205920D01239B02C3181A80BA
:1022B000012292028218128801239B02C3185B88B4
:1022C0009A420AD10122920282185288521C920527
:1022D000920D01239B02C3185A807047014608786B
:1022E000002800D17047087802280CD007480268FF
:1022F0004868101A8B68984203D9022008700120A0
:10230000F0E70020EEE70120ECE7000000000020ED
:10231000826841688918416001210170704700009E
:102320008160034A12684260012202707047000017
:102330000000002000210170704700000020C04311
:102340000549C96920221140002903D002492031E2
:102350008988C8B2704700000038014010B5FEF708
:1023600053FCFEF7D5F9FFF76BFF10BD014600BF28
:102370000548C069802210400028F9D0024820306A
:10238000018101207047000000380140AC230008A3
:10239000000000207C0000004A14000828240008E7
:1023A0007C000020DC0F00005A1400080000000030
:1023B000B80B00000000000000000000000000005A
:1023C000000000000000000000000000000000000D
:1023D00000000000000000000000000000000000FD
:1023E00000000000000000000000000102030401E2
:1023F0000203040607080900006CDC02000000006C
:1024000000000000010203040607080900000000A4
:1024100000000000003801401B0000000000000028
:082420000000000000000000B4
:04000005080000D51A
:00000001FF
