:020000040800F2
:10000000B02F0020D5000008110700080D070008D8
:1000100000000000000000000000000000000000E0
:10002000000000000000000000000000AD09000812
:100030000000000000000000FD070008CD0A0008D5
:10004000E7000008E7000008E7000008E7000008F4
:10005000E7000008E7000008E7000008E7000008E4
:10006000E7000008E7000008E7000008E7000008D4
:10007000E7000008E7000008E7000008E7000008C4
:10008000E7000008E700000800000000E7000008A3
:10009000E7000008E7000008E7000008E7000008A4
:1000A000E7000008E7000008E7000008710B0008FF
:1000B000E700000800000000E70000080000000062
:1000C0000348854600F03CF80048004799120008B4
:1000D000B02F00200448804704480047FEE7FEE7B1
:1000E000FEE7FEE7FEE7FEE7F50A0008C1000008AC
:1000F00030B50B46014600202022012409E00D46C0
:10010000D5409D4205D31D469540491B2546954047
:1001100040191546521E002DF1DC30BDD2B201E06F
:100120000270401C491EFBD270470022F6E710B552
:1001300013460A4604461946FFF7F0FF204610BD55
:10014000064C0125064E05E0E36807CC2B430C3C2A
:1001500098471034B442F7D3FFF7B6FFD81500081C
:10016000F815000870B505460C462B0001F00AF89A
:100170001DF5101E2A364452606E7A86929EAAB8E9
:10018000C6D4E2FCF3F2F1F0EFEEEDECEBEAF500B1
:10019000002C05D008210920C00600F0B5FA04E0C3
:1001A00008210920C00600F0ADFA76E1002C04D049
:1001B0001021BB4800F0A8FA03E01021B84800F075
:1001C000A1FA6AE1002C04D02021B54800F09CFA85
:1001D00003E02021B24800F095FA5EE1002C05D042
:1001E00010210920C00600F08FFA04E01021092038
:1001F000C00600F087FA50E1002C05D0202109202C
:10020000C00600F081FA04E020210920C00600F0B9
:1002100079FA42E1002C05D040210920C00600F007
:1002200073FA04E040210920C00600F06BFA34E1C3
:10023000002C05D080210920C00600F065FA04E0FA
:1002400080210920C00600F05DFA26E1002C04D0D0
:100250001021944800F058FA03E01021914800F072
:1002600051FA1AE1002C04D020218E4800F04CFAFB
:1002700003E020218B4800F045FA0EE1002C04D069
:100280000121894800F040FA03E00121864800F08E
:1002900039FA02E1002C04D00221834800F034FA3C
:1002A00003E00221804800F02DFAF6E0002C04D093
:1002B00004217D4800F028FA03E004217A4800F088
:1002C00021FAEAE0002C05D001218902764800F0ED
:1002D0001BFA04E001218902734800F013FADCE004
:1002E000002C05D00121C9026F4800F00DFA04E08E
:1002F0000121C9026C4800F005FACEE0002C05D0BF
:1003000001210903684800F0FFF904E00121090315
:10031000654800F0F7F9C0E0002C05D00121890301
:10032000614800F0F1F904E0012189035E4800F022
:10033000E9F9B2E0002C11D0012149035A4800F03C
:10034000E3F910E09CE08DE07EE06FE05EE04DE0E0
:100350003EE02FE022E015E006E09DE001214903A8
:10036000514800F0CFF998E0002C05D00121C903D5
:100370004D4800F0C9F904E00121C9034A4800F0E2
:10038000C1F98AE0002C04D04021464800F0BCF9B5
:1003900003E04021434800F0B5F97EE0002C04D092
:1003A0008021404800F0B0F903E080213D4800F092
:1003B000A9F972E0002C05D0FF210131394800F085
:1003C000A3F904E0FF210131364800F09BF964E015
:1003D000002C05D001214902324800F095F904E0D3
:1003E000012149022F4800F08DF956E0002C06D07B
:1003F000FF2101310920C00600F086F905E0FF2148
:1004000001310920C00600F07DF946E0002C06D03D
:100410000121C9030920C00600F076F905E0012199
:10042000C9030920C00600F06DF936E0002C05D0A4
:10043000012189021B4800F067F904E001218902CB
:10044000184800F05FF928E0002C05D00121C9020E
:10045000144800F059F904E00121C902114800F0E4
:1004600051F91AE0002C05D0012109030D4800F0D4
:100470004BF904E0012109030A4800F043F90CE0BC
:10048000002C04D00421094800F03EF903E00421C7
:10049000064800F037F900E000BF00BF70BD000063
:1004A000001400480008004800040048000C004800
:1004B00010B525480078012804D12448007800F0C0
:1004C00003FF07E020480078022803D11F48007886
:1004D00000F0F0FE1E480078002813D01D481E4989
:1004E0000978405C012803D11B48007800F09EFE8B
:1004F000184819490978405C022803D11648007849
:1005000000F05EFE1548007800281BD014481549FD
:100510000978405C012807D11348124A1278815C9F
:100520001048007800F030FF0A480E490978405C16
:10053000022807D10C480B4A1278815C09480078E0
:1005400000F0CCFE10BD00003A0000203B0000206F
:100550003C000020380100203D0000203E0000202B
:10056000080000203F0000200A0000201CB50121E7
:100570002F20400400F044F92648009001216846ED
:10058000017100218171032141710021C17169460E
:100590000920C00600F04CF81F4800900121684671
:1005A000017100218171032141710021C1716946EE
:1005B0001A4800F03DF81A48009001216846017180
:1005C00000218171032141710021C17169461548E3
:1005D00000F02EF8042000900121684601710021EE
:1005E0008171032141710021C17169460E4800F0FB
:1005F0001FF83020009001216846017100218171AF
:10060000032141710021C1716946084800F010F8CA
:100610001CBD0000F881000007FC00000004004839
:10062000F01F000000080048000C004800140048BB
:10063000F0B50A4600210023002400BF3DE001255B
:100640008D402B4615681D402C469C4234D11579AF
:10065000012D02D01579022D16D185684F00032691
:10066000BE40B543856055794E00B5408668354338
:100670008560858801268E40B5438580858896797A
:100680008E40B6B23543858005684F000326BE40D4
:10069000B543056015794E00B540066835430560E1
:1006A000C5684F000326BE40B543C560D5794E00EE
:1006B000B540C6683543C560491C1029BFD3F0BD9D
:1006C000F0B5002300244D07EE0E1546B5402B462D
:1006D000CD10AE0005462035AD594E07F70E0F265A
:1006E000BE40B543CE10B60007462037BD51CD10F1
:1006F000AE003D46AD591D432C46CD10AD003E46E3
:100700007451F0BD018570478161704700BFFEE7FD
:100710007047000000218278002A27D0184A03235E
:100720001B02D21803789B109B00D15802789207C5
:10073000D30EFF229A400B46934319464278920704
:10074000120E03789B07DB0E9A4011430C4A0323D9
:100750001B02D21803789B109B00D1500278D3065D
:10076000DB0E01229A40064B1A6007E00278D3069E
:10077000DB0E01229A40024B80331A607047000062
:1007800000E100E010B5002819DA1A4A03071B0F30
:10079000083B9B089B00D2588307DC0EFF23A34035
:1007A0009A438B071B0E8407E40EA3401A43114B98
:1007B0000407240F083CA408A4001A5118E00E4AAC
:1007C00003231B02D21883089B00D2588307DC0E38
:1007D000FF23A3409A438B071B0E8407E40EA3401C
:1007E0001A43054B032424021B198408A4001A5140
:1007F00010BD00001CED00E000E100E070470000CB
:10080000002905D0054A52690243044B5A6104E0AD
:10081000024A52698243014B5A61704700100240FC
:10082000002905D0054A92690243044B9A6104E00D
:10083000024A92698243014B9A617047001002405C
:10084000FEB50446002500260020019000900027F8
:10085000504840680C2108400546002D04D0042D66
:1008600005D0082D28D105E04B48206027E04A48F4
:10087000206024E0474840680F218904084006466C
:10088000444840680121090408400190B00C861CCE
:100890000198002803D14148704320600BE03D4897
:1008A000C06A0007000F401C00903B480099FFF70A
:1008B0001FFC7043206002E03748206000BF00BF8B
:1008C00034484068F021084005462D093448475D0A
:1008D0002068F84060602F484068072109020840FE
:1008E00005462D0A2E48475D6068F840A0602948FB
:1008F000006BFF2101310840884202D02948E060A6
:100900000DE024484068012189030840884203D053
:10091000A0684008E06002E0A0688008E0601D4830
:10092000006B40210840402802D01F48206102E0AF
:100930000120C00320611748006B102108401028D7
:1009400002D01548606101E0206860611148006BC9
:100950008007800F002802D1A068A06119E00D482F
:10096000006B8007800F012802D12068A06110E091
:100970000848006B8007800F022802D18003A06125
:1009800007E00448006B8007800F032801D102486C
:10099000A061FEBD0010024000127A0000093D0077
:1009A00011000020809FD5001280000070470000D9
:1009B0000CB5002001900090314800680121090425
:1009C00008432F49086000BF2D48006801214904F1
:1009D000084000900198401C01900098002804D124
:1009E0000521090201988842EED1254800680121BD
:1009F00049040840002802D00120009001E00020B6
:100A000000900098012839D111201E4908601C4827
:100A100040681B494860084640684860084640688E
:100A20003F2109048843164948600846406811215F
:100A30000904084312494860084600680121090674
:100A400008430F49086000BF0D48006801214906AE
:100A500008400028F8D00A4840688008800008490B
:100A6000486008464068022108430549486000BFC5
:100A7000034840680C2108400828F9D10CBD00004B
:100A8000001002400020024010B57D21C9000C4832
:100A90000068FFF72DFB0446601E0A49884200D912
:100AA0000CE0601E084948610321081FFFF76AFE39
:100AB0000020054988610720086100BF10BD0000C3
:100AC00024000020FFFFFF0000E000E0074800686E
:100AD000401C0649086006480088002804D00448E5
:100AE0000088401E02490880704700000000002076
:100AF0000400002010B51B48006801210843194973
:100B00000860084640681849084016494860084689
:100B1000006816490840134908600846006801212A
:100B2000890488430F490860084640683F2109044A
:100B300088430C4948600846C06A00090001C86241
:100B40000846006BFF215431884306490863084674
:100B5000406B40084000486300208860FFF728FF92
:100B600010BD0000001002400CB8FFF8FFFFF6FEB9
:100B700010B50C490C4800F07EF8002806D00B4850
:100B800000F05EFC0749084800F060F80849064894
:100B900000F071F8002803D00549034800F056F82A
:100BA00010BD00000501050000380140802900202B
:100BB0000601060000B589B001214804FFF720FEB8
:100BC00001218803FFF72CFE01220921C806FFF747
:100BD00077FD01220A210920C006FFF771FD0320DD
:100BE00040020790022108A80170032141700021F2
:100BF00081700121C17007A90920C006FFF718FD07
:100C0000E1204002019000200290039004900690A1
:100C10000C20059001A90B4800F076F801220A4942
:100C2000084800F04FF80121064800F018F81B2191
:100C3000684601700021417001218170FFF76AFD53
:100C400009B000BD003801400501050010B50023C2
:100C500000220B0C01249C402246026210BD002998
:100C600004D0026801231A43026003E002685208BC
:100C700052000260704770B502460B460024002106
:100C8000002500201E04350ED9B201268E403146C3
:100C9000012D02D11668314006E0022D02D15668BE
:100CA000314001E0966831401C0C0126A6403446D4
:100CB000D6693440002903D0002C01D0012000E087
:100CC000002070BDF8B503460024002600960025DC
:100CD000002018460E04340ECEB200960127009E66
:100CE000B7403D46022C01D1001D02E0032C00D18B
:100CF0000830002A03D006682E43066002E006682A
:100D0000AE430660F8BD0000F0B589B005460E465A
:100D100000240020089000BF00BF28684008400061
:100D200028606C6803210903204688430446B068A4
:100D300004436C602C682F480440F16870680843D5
:100D40003169084304432C60AC6803210902204642
:100D50008843044670690443AC606846FFF770FD41
:100D60002548854202D10698089001E00298089033
:100D700028680121C9030840002809D032685100C1
:100D80001923089A5A431046FFF7B2F9074608E0BC
:100D9000326891001923089A5A431046FFF7A8F9C0
:100DA000074664213846FFF7A3F9040120096421AE
:100DB0004843381A079028680121C90308400028D1
:100DC0000AD00799C900084632306421FFF790F92C
:100DD0004007400F044309E00799090108463230F3
:100DE0006421FFF785F90007000F0443AC8109B0C7
:100DF000F0BD0000F3E9FFFF0038014010B54C489A
:100E00004078002800D110BD4A4800884A4940185F
:100E1000002809D0012817D0FF38FF3802380028F1
:100E200022D0012858D13BE00020444908704148B5
:100E30000079012801D1424908703E480079022812
:100E400001D13F49087048E001203C490870394809
:100E50000079012801D13A49087036480079022802
:100E600001D13749087038E000203649087036480B
:100E70000978405C00280FD10120344908702D48C2
:100E8000007931492F4A127888542A4840793049EC
:100E90002C4A1278885402E000202C4908701CE08B
:100EA00001202849087028480978405C00280FD1A3
:100EB0000120264908701F4801792348214A1278E9
:100EC00081541C48407922491E4A1278885402E015
:100ED00000201E49087000E000BF00BF15480088D0
:100EE0000012F2281AD113480078002816D01148B1
:100EF0000078401E1749087017480978405C0028A0
:100F000009D10C4800791449124A127888540120FA
:100F10001249087002E00020104908708121890000
:100F20000448FFF702F902480021018000BF6AE788
:100F300038000020A8290020FF0EFFFF3B00002002
:100F40003A0000203F000020080000203E00002062
:100F50000A0000203D000020380100203C00002055
:100F600008B500200090FF202D3080490880FAE06D
:100F70007F484078012800D1F6E07C4800880028AE
:100F800003D101207A494870EEE00121684600F063
:100F90006AFA002800D1E7E075480078030000F005
:100FA000F1F807051627486E95B0D000684600781E
:100FB000552808D16E480078401C6D490870002003
:100FC0006C49088002E0012069494870CAE068461F
:100FD0000078AA2808D166480078401C6449087047
:100FE00000206449088002E0012061494870B9E0AE
:100FF00068460078F0280ADD6846007800025E49FD
:1010000008805B480078401C5949087010E0812135
:1010100089005A48FFF789F8002057490880584945
:101020000880544908800120514948700020087008
:1010300098E0514800886946097808434E4908807D
:10104000084600884D49088049480078401C4849B6
:1010500008704A480088002810D18121890047483B
:10106000FFF763F80020444908804549088041495A
:10107000088001203E4948700020087072E06846F0
:1010800000783F490880084600883C494880384835
:101090000078401C3649087038484088002803D042
:1010A00036484088642810DD812189003348FFF7E5
:1010B0003CF8002030490880314908802D490880DB
:1010C00001202B494870002008704BE02C48008814
:1010D000002810D068460178264802880088401C05
:1010E000244B18802548001D815425480088401E47
:1010F0002349088004E01E480078401C1C49087001
:1011000030E068460078CC2809D100201A490880D0
:101110001B49088017490880154908700DE0812196
:1011200089001648FFF701F8002013490880144988
:101130000880104908800E49087001200C49487049
:1011400010E0812189000D48FEF7EFFF00200A49D9
:1011500008800B490880074908800549087001206C
:10116000487000BF00BF03E700BF08BD04000020B7
:10117000380000204400002040000020A829002062
:101180004200002030B47446641E2578641CAB42D3
:1011900004D3635D5B00E31830BC18471D46F8E7D5
:1011A00002E008C8121F08C1002AFAD17047704730
:1011B000002001E001C1121F002AFBD1704700008E
:1011C00010B504461648005D012812D101212046C1
:1011D000FEF7C8FF1348005D022807D10C216143C8
:1011E000114A88181921890100F0D2F900200C4910
:1011F00008550C2161430C4A881800F0A7F9002813
:101200000CD000212046FEF7ADFF0C216143064AB9
:10121000881800F0C7F900200249085510BD0000E9
:101220004C010020380100204800002010B5044681
:101230001648005D012812D101212046FEF792FFD9
:101240001348005D012807D10C216143114A881819
:10125000FF21F53100F09CF900200C4908550C21C4
:1012600061430C4A881800F071F900280CD0002165
:101270002046FEF777FF0C216143064A881800F0EC
:1012800091F900200249085510BD00004C010020D2
:101290003801002048000020FFF7F6FBFFF766F951
:1012A00000F094F905E0FFF75BFEFFF7A7FDFFF7FD
:1012B000FFF8F8E710B504460249085D0021FEF783
:1012C00051FF10BD0600002010B504460249085D1C
:1012D0000121FEF747FF10BD0600002070B504464F
:1012E0000D462448005D012812D1002022490855EE
:1012F00021460F31C8B20021FEF734FF0C216143B3
:101300001E4A8818642100F043F900201949085545
:101310000C216143194A881800F018F900281AD0E6
:101320000C216143154A881800F02AF91448007806
:10133000002801D1012000E0002011490870214659
:101340001131C8B20E490978FEF70CFF0A48005D5A
:10135000401C094908550848005D6900884208D1C9
:101360000C216143054A881800F01CF9002005494A
:10137000085570BD0E0000200C0000206001002008
:10138000100000200800002070B504460D462748D4
:10139000005D012812D100202549085521460F3152
:1013A000C8B20121FEF7DEFE0C216143214A8818F4
:1013B000642100F0EDF800201C4908550C21614320
:1013C0001C4A881800F0C2F800281AD00C2161438A
:1013D000184A881800F0D4F817480078002801D17E
:1013E000012000E000201449087021461131C8B2E4
:1013F00011490978FEF7B6FE0D48005D401C0C4906
:1014000008550B48005D690088420ED10C216143EC
:10141000084A881800F0C6F80020084908552146F7
:101420000F31C8B20021FEF79DFE70BD0E000020F6
:101430000C000020600100201000002008000020A7
:1014400030B504460025ED430AE000F0AFF805464C
:10145000681C002800D104E0E9B2606800F050F890
:10146000F3E700BF30BDF8B504460D4626460AE056
:1014700000F010F80746781C002800D105E037700E
:10148000761C6D1E00BF002DF2D100BF301B0090F6
:101490000098F8BD0020C04308494988074A1288CF
:1014A00091420AD005494988054A505C0349498858
:1014B000491C044A1140014A5180704778150020A8
:1014C00078010020FF13000010B5052189020848AB
:1014D000FEF72BFE0020074908804880052189027D
:1014E0000548FEF722FE002104480180418010BD1E
:1014F00078010020781500207C1500207C29002030
:1015000005229202821812888154052292028218C2
:101510001288521C0C4B1A405B1CC3181A800522FF
:1015200092028218128805239B02C3185B889A4294
:1015300009D10522920282185288521C024B1A408D
:101540005B1CC3185A807047FF13000001460878DF
:10155000002800D17047087802280CD0074802689C
:101560004868101A8B68984203D90220087001203D
:10157000F0E70020EEE70120ECE70000000000208B
:10158000826841688918416001210170704700003C
:101590008160034A126842600122027070470000B5
:1015A0000000002000210170704700000020C043AF
:1015B0000549C96920221140002903D00249203180
:1015C0008988C8B2704700000038014010B5FFF7A5
:1015D000F1FAFFF779FF10BDF815000800000020B0
:1015E00048000000A0110008401600084800002034
:1015F000682F0000B011000800000000B80B1314A1
:1016000000000000000000000000000000010203D4
:10161000040102030406070809000000006CDC0254
:101620000000000000000000010203040607080992
:1016300000000000000000000000000000000000AA
:04000005080000D51A
:00000001FF
