:020000040800F2
:1000000058100020D50000083B0600083D050008F8
:1000100000000000000000000000000000000000E0
:10002000000000000000000000000000DD090008E2
:1000300000000000000000008D070008210B0008F0
:10004000E7000008E7000008E7000008E7000008F4
:10005000E7000008E7000008E7000008E7000008E4
:10006000E7000008E7000008E7000008E7000008D4
:10007000E7000008E7000008E7000008E7000008C4
:10008000E7000008E700000800000000E7000008A3
:10009000E7000008E7000008E7000008E7000008A4
:1000A000E7000008E7000008E7000008D90B000897
:1000B000E700000800000000E70000080000000062
:1000C0000348854600F03CF800480047451E0008FC
:1000D000581000200448804704480047FEE7FEE728
:1000E000FEE7FEE7FEE7FEE75D0B0008C100000843
:1000F00030B50B46014600202022012409E00D46C0
:10010000D5409D4205D31D469540491B2546954047
:1001100040191546521E002DF1DC30BDD2B201E06F
:100120000270401C491EFBD270470022F6E710B552
:1001300013460A4604461946FFF7F0FF204610BD55
:10014000064C0125064E05E0E36807CC2B430C3C2A
:1001500098471034B442F7D3FFF7B6FF9425000850
:10016000B425000870B505460C462B0001F03FFA97
:1001700013FA0B17232F3B47535F6D7B8997A5B36A
:10018000C1CFDDEBFA00002C04D00121802001F06A
:10019000A9FC03E00021802001F0A4FCE3E0002C96
:1001A00004D00121402001F09DFC03E0002140200B
:1001B00001F098FCD7E0002C04D00121202001F0B0
:1001C00091FC03E00021202001F08CFCCBE0002C0E
:1001D00004D00121102001F085FC03E00021102053
:1001E00001F080FCBFE0002C04D00121082001F0C8
:1001F00079FC03E00021082001F074FCB3E0002C3E
:1002000004D00121042001F06DFC03E00021042052
:1002100001F068FCA7E0002C04D00121022001F0CD
:1002200061FC03E00021022001F05CFC9BE0002C5B
:1002300005D00121FF20813001F054FC04E00021B1
:10024000FF20813001F04EFC8DE0002C05D0012113
:10025000FF20413001F046FC04E00021FF20413046
:1002600001F040FC7FE0002C05D00121FF2021306F
:1002700001F038FC04E00021FF20213001F032FCC5
:1002800071E0002C05D00121FF20113001F02AFC83
:1002900004E00021FF20113001F024FC63E0002C79
:1002A00005D00121FF20093001F01CFC04E00021F1
:1002B000FF20093001F016FC55E0002C05D001218B
:1002C000FF20053001F00EFC04E00021FF20053086
:1002D00001F008FC47E0002C05D00121FF2003308D
:1002E00001F000FC04E00021FF20033001F0FAFBE4
:1002F00039E0002C05D001210520C00101F0F2FBFE
:1003000004E000210520C00101F0ECFB2BE0002CF3
:1003100005D001210920800101F0E4FB04E0002167
:100320000920800101F0DEFB1DE0002C05D0012139
:100330001120400101F0D6FB04E000211120400112
:1003400001F0D0FB0FE0002C06D00121212000019C
:1003500001F0C8FB05E005E000212120000101F0CB
:10036000C1FB00E000BF00BF01F0C9FB70BD10B5CC
:1003700001F0B2FD01F0CAFD01F068FC01F092FC51
:1003800001F0E4FD01F032FE01F08AFE01F04EFFC3
:1003900010BD00001CB52D48009001216846017178
:1003A00000218171032141710121C1716946092038
:1003B000C00600F055F8264800906946254800F030
:1003C0004FF8254800906946244800F049F801217B
:1003D0004902224800F0B0F80221204800F0ACF8B1
:1003E000FF2101311D4800F0A7F801211B4800F052
:1003F000A3F8FF2101310920C00600F09DF801217A
:10040000C9020920C00600F097F80121090309205C
:10041000C00600F091F84021104800F08BF801214F
:10042000C9030C4800F086F801218903094800F04F
:1004300081F804210920C00600F07CF80121C903DD
:100440000920C00600F076F81CBD000004990000E9
:1004500007CC0000000400486303000000080048C7
:10046000F0B50A4600210023002400BF3DE001252D
:100470008D402B4615681D402C469C4234D1157981
:10048000012D02D01579022D16D185684F00032663
:10049000BE40B543856055794E00B540866835430A
:1004A0008560858801268E40B5438580858896794C
:1004B0008E40B6B23543858005684F000326BE40A6
:1004C000B543056015794E00B540066835430560B3
:1004D000C5684F000326BE40B543C560D5794E00C0
:1004E000B540C6683543C560491C1029BFD3F0BD6F
:1004F000F0B5002300244D07EE0E1546B5402B46FF
:10050000CD10AE0005462035AD594E07F70E0F262B
:10051000BE40B543CE10B60007462037BD51CD10C2
:10052000AE003D46AD591D432C46CD10AD003E46B4
:100530007451F0BD018570478161704700BFFEE7CF
:1005400070B505460C46012D06D0022D1CD0032D9A
:1005500028D0042D40D131E0002C0AD001214120C7
:10056000C00001F0BFFA01218120800001F0BAFA39
:1005700009E000214120C00001F0B4FA00218120EF
:10058000800001F0AFFA28E0002C05D00121812085
:10059000800001F0A7FA04E000218120800001F032
:1005A000A1FA1AE0002C04D001210E4801F09AFAB9
:1005B00003E000210B4801F095FA0EE0002C05D075
:1005C00001210D20800101F08DFA04E000210D20B1
:1005D000800101F087FA00E000BF00BF01F08FFA50
:1005E00070BD00000202000070B505460C46012DEA
:1005F00002D0022D1CD10DE0002C05D0012161207C
:10060000C00001F06FFA04E000216120C00001F099
:1006100069FA0EE0002C05D00121C120800001F014
:1006200061FA04E00021C120800001F05BFA00E0E3
:1006300000BF00BF01F063FA70BD704700218278EF
:10064000002A27D0184A03231B02D21803789B10D4
:100650009B00D15802789207D30EFF229A400B4696
:100660009343194642789207120E03789B07DB0EDC
:100670009A4011430C4A03231B02D21803789B10A3
:100680009B00D1500278D306DB0E01229A40064B24
:100690001A6007E00278D306DB0E01229A40024B73
:1006A00080331A607047000000E100E010B50028B8
:1006B00019DA1A4A03071B0F083B9B089B00D25804
:1006C0008307DC0EFF23A3409A438B071B0E84078E
:1006D000E40EA3401A43114B0407240F083CA4085E
:1006E000A4001A5118E00E4A03231B02D2188308F3
:1006F0009B00D2588307DC0EFF23A3409A438B074D
:100700001B0E8407E40EA3401A43054B0324240266
:100710001B198408A4001A5110BD00001CED00E054
:1007200000E100E008B51B2168460170002141701E
:1007300001218170FFF782FF08BD70B505460C46A8
:10074000012D02D0022D1CD10DE0002C05D001217D
:100750001920400101F0C6F904E0002119204001F0
:1007600001F0C0F90EE0002C05D00121312000017C
:1007700001F0B8F904E000213120000101F0B2F9E4
:1007800000E000BF00BF01F0BAF970BD7047000083
:10079000002905D0054A52690243044B5A6104E01E
:1007A000024A52698243014B5A617047001002406D
:1007B000002905D0054A92690243044B9A6104E07E
:1007C000024A92698243014B9A61704700100240CD
:1007D00010B5012107204004FFF7DAFF10BD00002B
:1007E000FEB5044600250026002001900090002759
:1007F000504840680C2108400546002D04D0042DC7
:1008000005D0082D28D105E04B48206027E04A4854
:10081000206024E0474840680F21890408400646CC
:10082000444840680121090408400190B00C861C2E
:100830000198002803D14148704320600BE03D48F7
:10084000C06A0007000F401C00903B480099FFF76A
:100850004FFC7043206002E03748206000BF00BFBB
:1008600034484068F021084005462D093448475D6A
:100870002068F84060602F4840680721090208405E
:1008800005462D0A2E48475D6068F840A06029485B
:10089000006BFF2101310840884202D02948E06006
:1008A0000DE024484068012189030840884203D0B4
:1008B000A0684008E06002E0A0688008E0601D4891
:1008C000006B40210840402802D01F48206102E010
:1008D0000120C00320611748006B10210840102838
:1008E00002D01548606101E0206860611148006B2A
:1008F0008007800F002802D1A068A06119E00D4890
:10090000006B8007800F012802D12068A06110E0F1
:100910000848006B8007800F022802D18003A06185
:1009200007E00448006B8007800F032801D10248CC
:10093000A061FEBD0010024000127A0000093D00D7
:100940003C000020809FD5001280000070B5054655
:100950000C46012D06D0022D10D0032D1AD0042DE7
:1009600032D123E0002C04D001211A48FFF7E4FD26
:1009700003E001211748FFF7DDFD26E0002C04D03D
:1009800004211448FFF7D8FD03E004211148FFF7C4
:10099000D1FD1AE0002C04D020210F48FFF7CCFD38
:1009A00003E020210C48FFF7C5FD0EE0002C05D028
:1009B000012189020748FFF7BFFD04E001218902F8
:1009C0000448FFF7B7FD00E000BF00BF01F097F853
:1009D00070BD00000004004800080048704710B5D2
:1009E000044600212046FFF7ABFD00F0EFFD10BDEF
:1009F00010B5044601212046FFF7A2FD00F0E6FDF8
:100A000010BD00000CB50020019000903148006836
:100A10000121090408432F49086000BF2D480068E0
:100A200001214904084000900198401C0190009861
:100A3000002804D10521090201988842EED12548F9
:100A40000068012149040840002802D001200090DC
:100A500001E0002000900098012839D111201E49A2
:100A600008601C4840681B49486008464068486068
:100A7000084640683F2109048843164948600846F3
:100A8000406811210904084312494860084600687B
:100A90000121090608430F49086000BF0D4800689E
:100AA0000121490608400028F8D00A48406880081B
:100AB000800008494860084640680221084305490B
:100AC000486000BF034840680C2108400828F9D15D
:100AD0000CBD0000001002400020024010B57D2136
:100AE000C9000C480068FFF703FB0446601E0A4972
:100AF000884200D90CE0601E084948610321081FA4
:100B0000FFF7D4FD0020054988610720086100BF78
:100B100010BD00004C000020FFFFFF0000E000E0DF
:100B20000B4800680B49884205D209480068401C00
:100B30000749086002E0002005490860064800886F
:100B4000002804D004480088401E034908807047EC
:100B500000000020FFFF8F000400002010B51B489C
:100B6000006801210843194908600846406818498F
:100B7000084016494860084600681649084013496D
:100B80000860084600680121890488430F4908600D
:100B9000084640683F21090488430C4948600846DC
:100BA000C06A00090001C8620846006BFF21543189
:100BB0008843064908630846406B40084000486384
:100BC00000208860FFF71EFF10BD000000100240EB
:100BD0000CB8FFF8FFFFF6FE10B50C490C4800F00A
:100BE00076F8002806D00B4801F0DCFB07490848DE
:100BF00000F058F80849064800F069F8002803D0CA
:100C00000549034800F04EF810BD0000050105003D
:100C100000380140200A00200601060000B589B016
:100C200001214804FFF7B4FD01218803FFF7C0FD4F
:100C300001220921C806FFF75BFC01220A210920D5
:100C4000C006FFF755FC032040020790022108A8C8
:100C5000017003214170002181700121C17007A939
:100C60000920C006FFF7FCFBE120400201900020B4
:100C700002900390049006900C20059001A907486B
:100C800000F06EF801220649044800F047F80121FF
:100C9000024800F010F809B000BD00000038014023
:100CA0000501050010B5002300220B0C01249C4017
:100CB0002246026210BD002904D0026801231A43B3
:100CC000026003E00268520852000260704770B58B
:100CD00002460B4600240021002500201E04350E8C
:100CE000D9B201268E403146012D02D1166831401D
:100CF00006E0022D02D15668314001E0966831408D
:100D00001C0C0126A6403446D6693440002903D085
:100D1000002C01D0012000E0002070BDF8B5034692
:100D20000024002600960025002018460E04340EEC
:100D3000CEB200960127009EB7403D46022C01D15D
:100D4000001D02E0032C00D10830002A03D0066801
:100D50002E43066002E00668AE430660F8BD000060
:100D6000F0B589B005460E4600240020089000BF6B
:100D700000BF28684008400028606C680321090310
:100D8000204688430446B06804436C602C682F48B2
:100D90000440F168706808433169084304432C60DB
:100DA000AC68032109022046884304467069044365
:100DB000AC606846FFF714FD2548854202D10698CD
:100DC000089001E00298089028680121C9030840B2
:100DD000002809D0326851001923089A5A43104656
:100DE000FFF786F9074608E0326891001923089A50
:100DF0005A431046FFF77CF9074664213846FFF74F
:100E000077F90401200964214843381A07902868BB
:100E10000121C903084000280AD00799C9000846E3
:100E200032306421FFF764F94007400F044309E0C2
:100E300007990901084632306421FFF759F9000784
:100E4000000F0443AC8109B0F0BD0000F3E9FFFFDF
:100E50000038014070B505460C462B0000F0C7FB7A
:100E600008FC05315D89B5E1FBFC002C23D0002195
:100E7000FF20813000F036FE0021FF20413000F0DD
:100E800031FE0021FF20213000F02CFE0021FF2048
:100E9000113000F027FE0021FF20093000F022FE73
:100EA0000021FF20053000F01DFE0121FF2003304E
:100EB00000F018FE04E00021FF20033000F012FED5
:100EC0000BE1002C23D00021FF20813000F00AFE2E
:100ED0000021FF20413000F005FE0021FF202130DD
:100EE00000F000FE0021FF20113000F0FBFD00218A
:100EF000FF20093000F0F6FD0021FF20033000F054
:100F0000F1FD0121FF20053000F0ECFD04E000219F
:100F1000FF20053000F0E6FDDFE0002C23D00021AB
:100F2000FF20813000F0DEFD0021FF20413000F085
:100F3000D9FD0021FF20213000F0D4FD0021FF2049
:100F4000113000F0CFFD0021FF20053000F0CAFD78
:100F50000021FF20033000F0C5FD0121FF200930F2
:100F600000F0C0FD04E00021FF20093000F0BAFDD0
:100F7000B3E0002C23D00021FF20813000F0B2FD2F
:100F80000021FF20413000F0ADFD0021FF20213085
:100F900000F0A8FD0021FF20093000F0A3FD002192
:100FA000FF20053000F09EFD0021FF20033000F0FF
:100FB00099FD0121FF20113000F094FD04E0002193
:100FC000FF20113000F08EFD87E0002C23D000219F
:100FD000FF20813000F086FD0021FF20413000F02D
:100FE00081FD0021FF20113000F07CFD0021FF2059
:100FF000093000F077FD0021FF20053000F072FD80
:101000000021FF20033000F06DFD0121FF20213081
:1010100000F068FD04E00021FF20213000F062FDB7
:101020005BE0002C26D00021FF20813000F05AFD2B
:101030000021FF20213000F055FD0021FF2011305C
:1010400000F050FD0021FF20093000F04BFD002191
:10105000FF20053001E013E03EE000F043FD0021F9
:10106000FF20033000F03EFD0121FF20413000F061
:1010700039FD04E00021FF20413000F033FD2CE079
:10108000002C23D00021FF20413000F02BFD002157
:10109000FF20213000F026FD0021FF20113000F05C
:1010A00021FD0021FF20093000F01CFD0021FF2060
:1010B000053000F017FD0021FF20033000F012FD85
:1010C0000121FF20813000F00DFD04E00021FF2010
:1010D000813000F007FD00E000BF00BF00F00FFD11
:1010E00070BD000010B5B0484078002800D110BD98
:1010F000AE480188AE4A881A91426ED022DCAD4AD1
:10110000881A91426AD012DCAB4A881A91424CD0BC
:1011100006DCAA48081800282BD001287BD136E02D
:10112000012860D0FF3801380028F7D17CE0FF2883
:1011300072D0FF38013800286FD001286ED0022805
:10114000ECD18DE006286AD006DC030000F04FFAEF
:1011500006FC92979CA1A6FCFF380138002872D0AB
:10116000012871D0FF38013800286ED00128D5D170
:10117000CEE08E480079012802D19149487005E0FF
:101180008A480079022801D18D494870DDE08748FE
:101190000079012802D18A49887005E083480079E6
:1011A000022801D186498870CFE08648407800281F
:1011B00015D17E480079032811DA7C4840797F28D0
:1011C0000DDA7A4800797F494870784840797E493D
:1011D000487001207D49487004E046E029E0002085
:1011E0007A494870B1E077488078002818D16F4874
:1011F0000079032814DA6D4840797F2810DA6B48AB
:10120000007970498870694840796F498870012079
:101210006E49887007E097E010E017E01BE042E0BD
:1012200000206A49887090E0604800796849087039
:101230008BE05E4800796749087086E05B4800797A
:101240006549487081E033E03CE045E0574800796B
:101250006149887079E0554800795F49C87074E049
:10126000524800795C4908716FE0504800795B4949
:1012700048706AE04D4800795849887065E04B48ED
:1012800000795649C87060E04848007953490871B0
:101290005BE0464800795149487156E0434800797F
:1012A0004E49887151E0414800794C49C8714CE081
:1012B0004B480078002804D1012049490870494969
:1012C000087042E046484078002804D10120444993
:1012D00048704449087038E043484078002813D1EA
:1012E0003248007903280FDA304840797F280BDA3A
:1012F0002E4800793C4948702C4840793B49487059
:1013000001203B49487002E00020394948701CE048
:1013100035488078002813D12448007903280FDA53
:10132000224840797F280BDA204800792E498870BE
:101330001E4840792D49887001202D49887002E0AF
:1013400000202B49887000E000BF00BF17480088CC
:101350000012F2281DD115480078002819D0134832
:1013600000782449087024480978405C00280BD193
:101370000E48007920491F4A1278885401211F48DD
:101380001C4A1278815404E000201C49194A127842
:101390008854812189000548FEF7C7FE02480021D4
:1013A000018000BFA3E6000072000020480A002070
:1013B00001F6000002F4000001F30000FF0EFFFF41
:1013C0000D0000202C0000202F0000203500002000
:1013D0001D0000201E0000201F000020240000200F
:1013E000070000200900002010000020130000204A
:1013F000190000207400002060010020730100200B
:1014000008B5002000906A486A490880CDE06A4823
:101410004078012800D1C9E066480088002803D13F
:10142000012065494870C1E00121684600F0CDFF08
:10143000002800D1BAE060480078030000F0D7F837
:1014400005041528496FA30068460078552808D17F
:1014500059480078401C58490870002057490880B6
:1014600002E00120544948709EE068460078AA28AE
:1014700008D151480078401C4F49087000204F495E
:10148000088004E001204C494870002008708BE07F
:1014900068460078F0280ADD68460078000248496E
:1014A000088045480078401C4349087010E08121BD
:1014B00089004448FEF739FE00204149088042492E
:1014C00008803E49088001203B4948700020087090
:1014D0006AE03B4800886946097808433849088033
:1014E000084600883749088033480078401C324954
:1014F000087034480088002810D1812189003148C3
:10150000FEF713FE00202E4908802F4908802B4942
:1015100008800120284948700020087044E068468F
:10152000007800280FDD68460078CC280BD068468C
:101530000178224802880088401C204B18802148EE
:10154000001D81541EE068460078CC280BD1002095
:101550001B4908801C4908801849088016490870F2
:10156000012048700EE0812189001648FEF7DDFD5C
:101570000020134908801149088001200E49487055
:101580000020087010E0812189000E48FEF7CDFD93
:1015900000200B4908800C4908800849088006494A
:1015A00008700120487000BF00BF30E700BF08BDD1
:1015B000B80B000004000020720000207A00002018
:1015C00076000020480A00207800002000B5A1B075
:1015D000802101A8FEF7A9FDAA2168460171BB215F
:1015E0004171022101A800F007FF21B000BD30B415
:1015F0007446641E2578641CAB4204D3635D5B00B3
:10160000E31830BC18471D46F8E702E008C8121F6F
:1016100008C1002AFAD170477047002001E001C1DB
:10162000121F002AFBD1704710B504467D21C90066
:101630006143084600F001F810BD70B5044600256E
:101640003021614308460721FEF752FD064600BFE0
:10165000681C0546B04200D970BDF9E710B50446D4
:10166000062C05D00F2C03D0102C01D0112C09D141
:1016700000212046FEF776FD00201A490855FFF7A5
:10168000A5FF2DE01848005D012812D10121204658
:10169000FEF768FD1348005D022807D10C21614365
:1016A000124A88187D21090100F03EFF00200E49F2
:1016B00008550C2161430D4A881800F013FF0028DB
:1016C0000ED000212046FEF74DFD0C216143074A54
:1016D000881800F033FF002002490855FFF776FF15
:1016E00010BD000060010020730100207C0000207C
:1016F00010B50446062C05D00F2C03D0102C01D0B9
:10170000112C09D101212046FEF72CFD00201A4999
:101710000855FFF75BFF2DE01848005D012812D146
:1017200001212046FEF71EFD1348005D012807D168
:101730000C216143124A8818FF21F53100F0F4FEB4
:1017400000200E4908550C2161430D4A881800F00D
:10175000C9FE00280ED000212046FEF703FD0C2113
:101760006143074A881800F0E9FE00200249085545
:10177000FFF72CFF10BD0000600100207301002066
:101780007C00002010B502210C48FEF7D3FE012199
:10179000C9020A48FEF7CEFE01210848FEF7CAFE3C
:1017A00020210748FEF7C6FE04210448FEF7C2FECA
:1017B000012189020148FEF7BDFE10BD000400486A
:1017C0000008004810B5FFF703F8FEF7E3FD00F04E
:1017D00003F8FFF7D7FF10BD10B5002004490870CB
:1017E00048708870C870087100F00CF810BD0000D7
:1017F00060000020024A125C8A43014B1A54704771
:101800006000002010B5012149025048FEF792FE09
:1018100002214E48FEF78EFEFF2101314B48FEF7B4
:1018200089FE01214948FEF785FEFF21013109208B
:10183000C006FEF77FFE0121C9020920C006FEF79F
:1018400079FE0520FFF7F9FE002470E0404800789B
:10185000802121410840002804D040213B48FEF768
:101860006BFE03E040213948FEF764FE38484078BB
:10187000802121410840002805D00121C9033548B5
:10188000FEF75AFE04E00121C9033248FEF752FE7A
:101890002F488078802121410840002805D001216F
:1018A00089032C48FEF748FE04E0012189032948FA
:1018B000FEF740FE2648C0788021214108400028DC
:1018C00005D004210920C006FEF736FE04E00421FD
:1018D0000920C006FEF72EFE1D4800798021214117
:1018E0000840002806D00121C9030920C006FEF7E0
:1018F00023FE05E00121C9030920C006FEF71AFEF8
:101900000520FFF79AFE012109030920C006FEF712
:1019100011FE0520FFF791FE012109030920C006F1
:10192000FEF70AFE0520FFF788FE601CC4B2082CF3
:101930008CDB0520FFF781FE0121C9020920C006CA
:10194000FEF7FAFD0520FFF778FE10BD00080048FD
:101950006000002000040048024A125C0A43014B68
:101960001A5470476000002010B522480078012802
:101970000CD101210320FEF7F5FB1F4800681F4929
:1019800048600120087000201A4908701B48406810
:1019900019490968081A1A49884209D90021012001
:1019A000FEF7E0FB002017490870FFF70FFE20E06C
:1019B0001248406810490968081A1349884208D932
:1019C00000210220FEF7CEFB01210846FEF7CAFBEC
:1019D0000FE00A48406808490968081A0B4988421C
:1019E00007D900210320FEF7BDFB01210220FEF7ED
:1019F000B9FB10BD09000020000000208801002074
:101A0000BC1B0000070000204C0400002602000060
:101A100010B52248007801280CD101210320FEF7DF
:101A2000A1FB1F4800681F49486001200870002082
:101A30001A4908701B48406819490968081A1A4968
:101A4000884209D900210120FEF78CFB00201749AC
:101A50004870FFF7BBFD20E0124840681049096854
:101A6000081A1349884208D900210220FEF77AFBA0
:101A700001210846FEF776FB0FE00A484068084956
:101A80000968081A0B49884207D900210320FEF78C
:101A900069FB01210220FEF765FB10BD0900002053
:101AA0000000002088010020442F000007000020D3
:101AB0004C0400002602000038B5044620126A4695
:101AC0001070547051781078FFF794FE38BD38B517
:101AD000044620126A461070547051781078FFF74F
:101AE0003BFF38BD70B505460C46002C03D0284698
:101AF000FFF7EDFF02E02846FFF7DEFF70BD10B5EF
:101B0000FFF780FE10BD000070B504460D46474843
:101B1000005D012812D10020454908550C21614380
:101B2000444A8818FF21913100F0FEFC4B21C90086
:101B3000414800F0F9FC00203C4908550C21614364
:101B40003C4A881800F0CEFC002817D00C216143D5
:101B5000384A881800F0E0FC601E3849085C00280C
:101B600001D1012100E00021601E344A1154621E9F
:101B7000324B995CA21CD0B2FEF7E8FE2E4800F072
:101B8000B1FC00281AD00C2161432D4A8818FF218E
:101B9000913100F0C9FC284800F0D0FC601E274AB3
:101BA000115C2046FEF7D2FE601E2449095C254ADE
:101BB00011541F48005D401C1D4908550C2161430C
:101BC0001F4A881800F08EFC002819D00C216143B0
:101BD0001B4A881800F0A0FC601E1A49085C002807
:101BE00001D1012100E00021601E164A1154115C50
:101BF0002046FEF7ABFE0E48005D401C0C49085520
:101C00000B48005DA84210D10C2161430C4A881892
:101C100000F094FC0C216143064A881800F08EFC09
:101C2000002009490855FFF7D1FC70BD35000020A0
:101C300032000020E80100200C0200203A000020C1
:101C4000C4010020380000202C00002010B51348EB
:101C50004078012805D112484178012000F04EF863
:101C600008E00E484078022804D10D484178012050
:101C7000FFF74AFF09488078012805D10848817894
:101C8000022000F03BF808E004488078022804D1E4
:101C9000034881780220FFF737FF10BD2C00002099
:101CA0002F00002010B513484078012805D11248B4
:101CB0004178012000F020FB08E00E48407802281F
:101CC00004D10D484178012000F0C0FA094880781D
:101CD000012805D108488178022000F00DFB08E0BA
:101CE00004488078022804D103488178022000F05B
:101CF000ADFA10BD100000201300002070B504469E
:101D00000D464848005D012812D10020464908557B
:101D10000C216143454A8818FF21913100F004FCF1
:101D20004B21C900424800F0FFFB00203D49085507
:101D30000C2161433D4A881800F0D4FB002814D0E0
:101D40000C216143394A881800F0E6FB601E3949CE
:101D5000085C002801D1012100E00021601E354A05
:101D60001154115C2046FEF7F1FD314800F0BAFB3A
:101D700000281BD00C2161432F4A8818FF21913184
:101D800000F0D2FB2A4800F0D9FB621E294B995C77
:101D9000A21CD0B2FEF7DAFD601E2649095C274A74
:101DA00011542148005D401C1F4908550C21614316
:101DB000214A881800F096FB00281CD00C216143B2
:101DC0001D4A881800F0A8FB601E1C49085C00280A
:101DD00001D1012100E00021601E184A1154621E49
:101DE000164B995CA21CD0B2FEF7B0FD0E48005D08
:101DF000401C0D4908550C48005DA84210D10C212B
:101E000061430A4A881800F099FB0C2161430A4A91
:101E1000881800F093FB002009490855FFF7D6FB0E
:101E200070BD00003500002032000020C4010020F9
:101E30000C02002038000020E80100203A000020B9
:101E40002C000020FEF74AFEFFF7BCFC00F08AFBE6
:101E500009201249087011E0012110480078FEF7AE
:101E600081F9C820FFF7E0FB00210C480078FEF75D
:101E700079F90A480078401C08490870074800783A
:101E80001328E9DB08E0FFF7BBFAFFF72BF9FEF7B1
:101E90006EFA0520FFF7D1FBF5E7000006000020F1
:101EA00010B5044600212046FEF747FC00200249F9
:101EB0000855FFF78BFB10BD0D00002010B5044640
:101EC00001212046FEF739FC002002490855FFF7A2
:101ED0007DFB10BD0D00002010B5012410E00A4864
:101EE000005D012803D12046FFF702FC06E006480A
:101EF000005D022802D12046FFF7B0FB601CC4B28F
:101F0000132CECDB10BD00006001002010B50E4862
:101F10004078012802D1FFF7D1FF06E00A48407857
:101F2000022802D10120FFF7BBFF07488078012873
:101F300003D10220FFF7C2FF05E0034880780228A2
:101F400001D1FFF7ADFF10BD0D00002010B52548F1
:101F5000007801280ED10220FFF7A2FF0021022005
:101F6000FEF742FB01210846FEF73EFB00201D491B
:101F7000087035E01B48007802280DD1FFF790FF6C
:101F800000210220FEF730FB00210120FEF72CFB90
:101F900000201449087023E01348007801280ED16E
:101FA0000220FFF77DFF00210120FEF71DFB01212C
:101FB0000220FEF719FB00200B49087010E00A48C8
:101FC000007802280CD1FFF76BFF00210120FEF7FB
:101FD0000BFB00210220FEF707FB002002490870DE
:101FE00010BD00001D0000201E00002010B52B4871
:101FF0004078012805D1FEF7FBFC002027494870F6
:102000004AE026484078022806D10120FEF7E7FC86
:102010000020224948703FE020488078012806D1FE
:102020000220FEF7E5FC00201C49887034E01B48C4
:102030008078022805D1FEF7D2FC0020174988706D
:102040002AE01648C078012806D10320FEF7D0FC0C
:1020500000201249C8701FE01048C078022806D13D
:102060000320FEF7BCFC00200C49C87014E00B48AC
:102070000079012806D10420FEF7BAFC00200749A8
:10208000087109E005480079022805D10420FEF70F
:10209000A6FC00200149087110BD00001F000020AF
:1020A00010B561484078012809D101210846FEF7A2
:1020B000D1FEFFF78BFA00205B494870B3E05A4825
:1020C0004078022809D100210120FEF7C3FEFFF766
:1020D0007DFA002054494870A5E0534880780128D3
:1020E00009D101210220FEF7B5FEFFF76FFA0020AB
:1020F0004D49887097E04C488078022808D100212B
:10210000FEF7A8FEFFF762FA0020474988708AE0D0
:102110004548C078012809D101210320FEF79AFE25
:10212000FFF754FA00204049C8707CE03E48C07870
:10213000022809D100210320FEF78CFEFFF746FAA2
:1021400000203949C8706EE037480079012809D16C
:1021500001210420FEF77EFEFFF738FA0020324905
:10216000087160E030480079022809D1002104207C
:10217000FEF770FEFFF72AFA00202B49087152E0A3
:1021800029484079012809D101210520FEF762FE86
:10219000FFF71CFA00202449487144E022484079A6
:1021A000022809D100210520FEF754FEFFF70EFAA0
:1021B00000201D49487136E01B488079012809D16B
:1021C00001210620FEF746FEFFF700FA002016491F
:1021D000887128E014488079022809D1002106205E
:1021E000FEF738FEFFF7F2F900200F4988711AE078
:1021F0000D48C079012809D101210720FEF72AFEE8
:10220000FFF7E4F900200849C8710CE00648C079DE
:10221000022808D100210720FEF71CFEFFF7D6F99F
:1022200000200149C87110BD2400002010B50648E7
:102230000078012801D1FFF797FB03484078012877
:1022400001D1FFF7E5FB10BD0700002070B5044683
:102250000D462448005D012810D100202249085570
:1022600000212046FEF772FB0C2161431F4A8818AB
:10227000502100F059F900201A4908550C216143FA
:102280001A4A881800F02EF9002819D00C21614351
:10229000164A881800F040F915480078002801D146
:1022A000012000E0002012490870A11CC8B21049AA
:1022B0000978FEF74BFB0C48005D401C0A490855A5
:1022C0000948005D690088420AD10C216143074A30
:1022D000881800F033F9002006490855FFF776F911
:1022E00070BD00001900002016000020A001002091
:1022F0001C0000201000002070B504460D46244844
:10230000005D012810D100202249085501212046F6
:10231000FEF71CFB0C2161431F4A8818502100F076
:1023200003F900201A4908550C2161431A4A8818FC
:1023300000F0D8F8002819D00C216143164A8818FB
:1023400000F0EAF815480078002801D1012000E0EB
:10235000002012490870A11CC8B210490978FEF784
:10236000F5FA0C48005D401C0A4908550948005D13
:10237000690088420AD10C216143074A881800F09D
:10238000DDF8002006490855FFF720F970BD000070
:102390001900002016000020A00100201C000020D1
:1023A0001000002030B504460025ED430AE000F09F
:1023B000C9F80546681C002800D104E0E9B260684D
:1023C00000F06AF8F3E700BF30BDF8B504460D46EB
:1023D00026460AE000F020F80746781C002800D1C5
:1023E00005E03770761C6D1E00BF002DF2D100BFD6
:1023F000301B00900098F8BD70B503460C460026CF
:102400001D4604E0287800F0B5F86D1C641E002C11
:10241000F8D1EE1A304670BD0020C0430849498803
:10242000074A128891420AD005494988054A505CFA
:1024300003494988491C8905890D014A5180704723
:10244000180600201802002010B50D4C0D480E494A
:1024500048600E48886008460460012189020948E6
:10246000FDF763FE00200A490880488001218902A7
:102470000648FDF75AFE002006490880488010BD36
:102480006800002018020020200A00201C060020FE
:10249000180600201C0A00200122920282181288CD
:1024A00081540122920282181288521C9205920DC8
:1024B00001239B02C3181A800122920282181288FB
:1024C00001239B02C3185B889A420AD1012292021F
:1024D00082185288521C9205920D01239B02C31848
:1024E0005A80704701460878002800D17047087864
:1024F00002280CD0074802684868101A8B68984276
:1025000003D9022008700120F0E70020EEE7012047
:10251000ECE70000000000208268416889184160F3
:1025200001210170704700008160034A1268426017
:10253000012202707047000000000020002101709D
:10254000704700000020C0430549C969202211409E
:10255000002903D0024920318988C8B270470000A1
:102560000038014010B5FEF759FBFEF7DBF8FFF726
:102570006BFF10BD014600BF0548C06980221040B6
:102580000028F9D002482030018101207047000066
:1025900000380140B4250008000000207C00000045
:1025A0000A160008302600087C000020DC0F00001E
:1025B0001A16000800000000B80B00000000000020
:1025C000000000000000000000000000000000000B
:1025D00000000000000000000000000000000000FB
:1025E00000000000000000000000000000000000EB
:1025F00000000000010203040102030406070809A9
:10260000006CDC0200000000000000000102030476
:102610000607080900000000000000000038014023
:102620001B0000000000000000000000000000008F
:04000005080000D51A
:00000001FF
