:020000040800F2
:1000000058100020D5000008A7050008BD0400080E
:1000100000000000000000000000000000000000E0
:10002000000000000000000000000000450900087A
:100030000000000000000000F9060008890A00081E
:10004000E7000008E7000008E7000008E7000008F4
:10005000E7000008E7000008E7000008E7000008E4
:10006000E7000008E7000008E7000008E7000008D4
:10007000E7000008E7000008E7000008E7000008C4
:10008000E7000008E700000800000000E7000008A3
:10009000E7000008E7000008E7000008E7000008A4
:1000A000E7000008E7000008E70000082D0B000843
:1000B000E700000800000000E70000080000000062
:1000C0000348854600F03CF800480047D11A000874
:1000D000581000200448804704480047FEE7FEE728
:1000E000FEE7FEE7FEE7FEE7B10A0008C1000008F0
:1000F00030B50B46014600202022012409E00D46C0
:10010000D5409D4205D31D469540491B2546954047
:1001100040191546521E002DF1DC30BDD2B201E06F
:100120000270401C491EFBD270470022F6E710B552
:1001300013460A4604461946FFF7F0FF204610BD55
:10014000064C0125064E05E0E36807CC2B430C3C2A
:1001500098471034B442F7D3FFF7B6FF9420000855
:10016000B420000870B505460C462B0001F0A7F836
:1001700013FA0B17232F3B47535F6D7B8997A5B36A
:10018000C1CFDDEBFA00002C04D00121802001F06A
:10019000EFFA03E00021802001F0EAFAE3E0002C0E
:1001A00004D00121402001F0E3FA03E000214020C7
:1001B00001F0DEFAD7E0002C04D00121202001F06C
:1001C000D7FA03E00021202001F0D2FACBE0002C86
:1001D00004D00121102001F0CBFA03E0002110200F
:1001E00001F0C6FABFE0002C04D00121082001F084
:1001F000BFFA03E00021082001F0BAFAB3E0002CB6
:1002000004D00121042001F0B3FA03E0002104200E
:1002100001F0AEFAA7E0002C04D00121022001F089
:10022000A7FA03E00021022001F0A2FA9BE0002CD3
:1002300005D00121FF20813001F09AFA04E000216D
:10024000FF20813001F094FA8DE0002C05D00121CF
:10025000FF20413001F08CFA04E00021FF20413002
:1002600001F086FA7FE0002C05D00121FF2021302B
:1002700001F07EFA04E00021FF20213001F078FA3D
:1002800071E0002C05D00121FF20113001F070FA3F
:1002900004E00021FF20113001F06AFA63E0002C35
:1002A00005D00121FF20093001F062FA04E00021AD
:1002B000FF20093001F05CFA55E0002C05D0012147
:1002C000FF20053001F054FA04E00021FF20053042
:1002D00001F04EFA47E0002C05D00121FF20033049
:1002E00001F046FA04E00021FF20033001F040FA5B
:1002F00039E0002C05D001210520C00101F038FAB9
:1003000004E000210520C00101F032FA2BE0002CAE
:1003100005D001210920800101F02AFA04E0002122
:100320000920800101F024FA1DE0002C05D00121F4
:100330001120400101F01CFA04E0002111204001CD
:1003400001F016FA0FE0002C06D001212120000157
:1003500001F00EFA05E005E000212120000101F086
:1003600007FA00E000BF00BF01F00FFA70BD10B542
:1003700001F0F8FB01F010FC01F0AEFA01F0D8FA40
:1003800001F02AFC01F078FC01F0D0FC10BD000067
:100390001CB5FF2031300090012168460171002119
:1003A0008171032141710121C17169460920C00693
:1003B00000F016F8064800906946064800F010F86C
:1003C000054800906946054800F00AF81CBD000089
:1003D00007EC00000004004861030000000800482A
:1003E000F0B50A4600210023002400BF3DE00125AE
:1003F0008D402B4615681D402C469C4234D1157902
:10040000012D02D01579022D16D185684F000326E3
:10041000BE40B543856055794E00B540866835438A
:100420008560858801268E40B543858085889679CC
:100430008E40B6B23543858005684F000326BE4026
:10044000B543056015794E00B54006683543056033
:10045000C5684F000326BE40B543C560D5794E0040
:10046000B540C6683543C560491C1029BFD3F0BDEF
:10047000F0B5002300244D07EE0E1546B5402B467F
:10048000CD10AE0005462035AD594E07F70E0F26AC
:10049000BE40B543CE10B60007462037BD51CD1043
:1004A000AE003D46AD591D432C46CD10AD003E4635
:1004B0007451F0BD018570478161704700BFFEE750
:1004C00070B505460C46012D06D0022D12D0032D25
:1004D0001ED0042D36D127E0002C05D0012141206B
:1004E000C00001F045F904E000214120C00001F006
:1004F0003FF928E0002C05D001218120800001F087
:1005000037F904E000218120800001F031F91AE080
:10051000002C04D001210E4801F02AF903E000214B
:100520000B4801F025F90EE0002C05D001210D202B
:10053000800101F01DF904E000210D20800101F08F
:1005400017F900E000BF00BF01F01FF970BD000007
:100550000202000070B505460C46012D02D0022DA6
:100560001CD10DE0002C05D001216120C00001F05C
:10057000FFF804E000216120C00001F0F9F80EE06E
:10058000002C05D00121C120800001F0F1F804E029
:100590000021C120800001F0EBF800E000BF00BFA7
:1005A00001F0F3F870BD704700218278002A27D04F
:1005B000184A03231B02D21803789B109B00D158C2
:1005C00002789207D30EFF229A400B4693431946B6
:1005D00042789207120E03789B07DB0E9A40114374
:1005E0000C4A03231B02D21803789B109B00D150A6
:1005F0000278D306DB0E01229A40064B1A6007E010
:100600000278D306DB0E01229A40024B80331A6037
:100610007047000000E100E010B5002819DA1A4A1E
:1006200003071B0F083B9B089B00D2588307DC0E77
:10063000FF23A3409A438B071B0E8407E40EA340BD
:100640001A43114B0407240F083CA408A4001A51B4
:1006500018E00E4A03231B02D21883089B00D258CD
:100660008307DC0EFF23A3409A438B071B0E8407EE
:10067000E40EA3401A43054B032424021B198408EB
:10068000A4001A5110BD00001CED00E000E100E0E4
:1006900008B51B216846017000214170012181705D
:1006A000FFF782FF08BD70B505460C46012D02D04C
:1006B000022D1CD10DE0002C05D001211920400194
:1006C00001F056F804E000211920400101F050F833
:1006D0000EE0002C05D001213120000101F048F886
:1006E00004E000213120000101F042F800E000BFE9
:1006F00000BF01F04AF870BD70470000002905D026
:10070000054A52690243044B5A6104E0024A5269A5
:100710008243014B5A61704700100240002905D006
:10072000054A92690243044B9A6104E0024A9269C5
:100730008243014B9A6170470010024010B50121BD
:1007400007204004FFF7DAFF10BD0000FEB50446A5
:1007500000250026002001900090002750484068A6
:100760000C2108400546002D04D0042D05D0082D8D
:1007700028D105E04B48206027E04A48206024E06B
:10078000474840680F2189040840064644484068AD
:100790000121090408400190B00C861C0198002832
:1007A00003D14148704320600BE03D48C06A000718
:1007B000000F401C00903B480099FFF799FC7043E4
:1007C000206002E03748206000BF00BF3448406826
:1007D000F021084005462D093448475D2068F8405F
:1007E00060602F48406807210902084005462D0A2D
:1007F0002E48475D6068F840A0602948006BFF21E3
:1008000001310840884202D02948E0600DE02448C8
:100810004068012189030840884203D0A06840084D
:10082000E06002E0A0688008E0601D48006B4021A5
:100830000840402802D01F48206102E00120C00388
:1008400020611748006B10210840102802D015487D
:10085000606101E0206860611148006B8007800FD3
:10086000002802D1A068A06119E00D48006B800744
:10087000800F012802D12068A06110E00848006BB9
:100880008007800F022802D18003A06107E004489E
:10089000006B8007800F032801D10248A061FEBDD4
:1008A0000010024000127A0000093D0035000020CF
:1008B000809FD5001280000070B505460C46012DC2
:1008C00006D0022D10D0032D1AD0042D32D123E0F2
:1008D000002C04D001211948FFF7EEFD03E00121AF
:1008E0001648FFF7E7FD26E0002C04D0042113484A
:1008F000FFF7E2FD03E004211048FFF7DBFD1AE0FB
:10090000002C04D020210E48FFF7D6FD03E0202163
:100910000B48FFF7CFFD0EE0002C05D00121890226
:100920000648FFF7C9FD04E0012189020348FFF7EB
:10093000C1FD00E000BF00BF70BD00000004004822
:1009400000080048704710B5044600212046FFF714
:10095000B7FD00F0A3FC10BD10B5044601212046F0
:10096000FFF7AEFD00F09AFC10BD00000CB50020B2
:1009700001900090314800680121090408432F4983
:10098000086000BF2D48006801214904084000901C
:100990000198401C01900098002804D1052109020B
:1009A00001988842EED12548006801214904084099
:1009B000002802D00120009001E000200090009863
:1009C000012839D111201E4908601C4840681B4984
:1009D0004860084640684860084640683F2109046E
:1009E00088431649486008464068112109040843B5
:1009F00012494860084600680121090608430F496A
:100A0000086000BF0D480068012149060840002821
:100A1000F8D00A48406880088000084948600846C5
:100A20004068022108430549486000BF0348406808
:100A30000C2108400828F9D10CBD0000001002402C
:100A40000020024010B57D21C9000C480068FFF766
:100A50004FFB0446601E0A49884200D90CE0601E24
:100A6000084948610321081FFFF7D6FD002005490A
:100A700088610720086100BF10BD00004800002009
:100A8000FFFFFF0000E000E007480068401C064947
:100A9000086006480068002804D004480068401E2A
:100AA0000249086070470000000000200400002098
:100AB00010B51B4800680121084319490860084621
:100AC00040681849084016494860084600681649B9
:100AD00008401349086008460068012189048843DA
:100AE0000F490860084640683F21090488430C49C3
:100AF00048600846C06A00090001C8620846006BE9
:100B0000FF2154318843064908630846406B40087A
:100B10004000486300208860FFF728FF10BD0000F8
:100B2000001002400CB8FFF8FFFFF6FE10B50C49AC
:100B30000C4800F076F8002806D00B4801F0B2F916
:100B40000749084800F058F80849064800F069F8D5
:100B5000002803D00549034800F04EF810BD0000FE
:100B600005010500003801401C0A002006010600AE
:100B700000B589B001214804FFF7C0FD01218803B9
:100B8000FFF7CCFD01220921C806FFF771FC012205
:100B90000A210920C006FFF76BFC032040020790E2
:100BA000022108A8017003214170002181700121F8
:100BB000C17007A90920C006FFF712FCE12040021E
:100BC0000190002002900390049006900C20059064
:100BD00001A9074800F06EF801220649044800F018
:100BE00047F80121024800F010F809B000BD0000EC
:100BF000003801400501050010B5002300220B0C50
:100C000001249C402246026210BD002904D00268E3
:100C100001231A43026003E0026852085200026096
:100C2000704770B502460B460024002100250020C5
:100C30001E04350ED9B201268E403146012D02D157
:100C40001668314006E0022D02D15668314001E0BD
:100C5000966831401C0C0126A6403446D6693440C3
:100C6000002903D0002C01D0012000E0002070BD3D
:100C7000F8B50346002400260096002500201846FB
:100C80000E04340ECEB200960127009EB7403D46BA
:100C9000022C01D1001D02E0032C00D10830002AF3
:100CA00003D006682E43066002E00668AE43066085
:100CB000F8BD0000F0B589B005460E4600240020BE
:100CC000089000BF00BF28684008400028606C689A
:100CD00003210903204688430446B06804436C603E
:100CE0002C682F480440F168706808433169084354
:100CF00004432C60AC680321090220468843044663
:100D000070690443AC606846FFF720FD25488542C2
:100D100002D10698089001E0029808902868012105
:100D2000C9030840002809D0326851001923089AE5
:100D30005A431046FFF7DCF9074608E03268910095
:100D40001923089A5A431046FFF7D2F9074664213F
:100D50003846FFF7CDF90401200964214843381AC9
:100D6000079028680121C903084000280AD0079984
:100D7000C900084632306421FFF7BAF94007400F36
:100D8000044309E007990901084632306421FFF75E
:100D9000AFF90007000F0443AC8109B0F0BD0000BB
:100DA000F3E9FFFF0038014010B5A3484078002860
:100DB00000D110BDA1480188A14A881A91427DD076
:100DC00019DCA04A881A914266D00BDC9E480818AC
:100DD000002829D0012835D0FF38FF3802380028F4
:100DE0006DD13DE0FF2878D0FF38013800287DD054
:100DF000FF28F5D17FE001225202811A904271D082
:100E000009DC01286FD002286ED0FF38FF38013886
:100E10000028E5D184E0FF2967D0FF390139002996
:100E200073D0FF29DCD1C7E084480079012802D1C2
:100E30008649487005E081480079022801D183493C
:100E40004870C6E07D480079012802D17F4988704A
:100E500005E07A480079022801D17C498870B8E021
:100E60007B484078002813D17448007903280FDAB2
:100E7000724840797F280BDA7048007974494870CD
:100E80006E4840797349487001207349487002E008
:100E90000020714948709CE06D488078002818D186
:100EA00066480079032814DA644840797F2810DA0C
:100EB0006248007966498870604803E020E087E076
:100EC0000BE013E040796349887001206249887023
:100ED00002E00020604988707BE0584800795F4953
:100EE000087076E026E011E015E02DE05348007927
:100EF0005B4908706DE0514800795A49487068E0D4
:100F00004E4800795749887063E039E04B480079D2
:100F10005449C8705DE0494800795249087158E069
:100F200051480078002804D101204F4908704F49EA
:100F300008704EE04C484078002804D101204A490E
:100F400048704A49087044E049484078002813D165
:100F50003A48007903280FDA384840797F280BDABD
:100F600036480079424948703448407941494870D0
:100F700001204149487002E000203F49487028E0C4
:100F80003B488078002813D12C48007903280FDAD9
:100F90002A4840797F280BDA28480079344988703C
:100FA000264840793349887001203349887002E02F
:100FB0000020314988700CE030480078002803D1C7
:100FC00001202F49087002E000202D49087000E040
:100FD00000BF00BF194800880012F22821D117482D
:100FE000007800281DDD15480078132819DA134809
:100FF00000782449087024480978405C00280BD107
:101000000E48007920491F4A1278885401211F4850
:101010001C4A1278815404E000201C49194A1278B5
:101020008854812189000548FFF77FF80248002194
:10103000018000BFBDE600006A000020440A0020D5
:1010400002F5000002F30000FF0EFFFF0E0000207B
:1010500025000020280000202E0000201E00002077
:101060001F00002020000020090000200B000020AD
:1010700011000020140000201A0000207000002041
:101080006F0000206E0000205C0100206F01002036
:1010900008B500200090794879490860EBE079486C
:1010A0004078012800D1E7E075480068002812D197
:1010B000012074494870812189007348FFF735F891
:1010C000002072490880724908806E49087001202A
:1010D00070490870D0E00121684600F0F6FE002853
:1010E00000D1C9E067480078030000F0E8F8050483
:1010F0001B345980B2006846007855280BD16148EE
:101100000078401C5F490870002061490880032076
:101110006049087005E004205E49087001205949C3
:101120004870A7E068460078AA280BD15548007897
:10113000401C544908700020554908800520554935
:10114000087007E001204F49487000200870062011
:10115000504908708EE068460078F0280DDD68463A
:10116000007800024949088046480078401C4549FB
:10117000087007204749087011E081218900424822
:10118000FEF7D3FF00204149088041490880012033
:101190003C4948700020087008203E49087069E00A
:1011A0003A48008869460978084338490880084663
:1011B00000883549088033480078401C3149087060
:1011C0000920344908703048008800280ED1812158
:1011D00089002D48FEF7A9FF00202C4908802C49E2
:1011E00008800120274948700020087042E06846C6
:1011F000007800280FDD68460078CC280BD06846C0
:101200000178234802880088401C214B18801E4822
:10121000001D81541CE068460078CC2809D10020CC
:101220001A4908801A490880164908700120487038
:101230000EE0812189001448FEF777FF0020134952
:1012400008801349088001200E494870002008706A
:1012500010E0812189000C48FEF767FF00200B4950
:1012600008800D4908800A49088006490870012055
:10127000487000BF00BF12E700BF08BDB80B0000F8
:10128000040000206A000020440A002072000020B0
:10129000760000206C0000207400002000B5A1B092
:1012A000802101A8FEF741FFAA2168460171BB21F8
:1012B0004171022101A800F01FFE21B000BD30B431
:1012C0007446641E2578641CAB4204D3635D5B00E6
:1012D000E31830BC18471D46F8E702E008C8121FA3
:1012E00008C1002AFAD170477047002001E001C10F
:1012F000121F002AFBD1704710B504467D21C9009A
:101300006143084600F001F810BD70B504460025A1
:101310003021614308460721FEF7EAFE064600BF7A
:10132000681C0546B04200D970BDF9E710B5044607
:101330001748005D012812D101212046FEF712FF57
:101340001448005D022807D10C216143124A881815
:101350007D21090100F068FE00200D4908550C218F
:1013600061430D4A881800F03DFE00280ED0002190
:101370002046FEF7F7FE0C216143074A881800F06B
:101380005DFE002003490855FFF788FF10BD0000EF
:101390006F0100205C0100207800002010B5044699
:1013A0001748005D012812D101212046FEF7DAFE20
:1013B0001448005D012807D10C216143124A8818A6
:1013C000FF21F53100F030FE00200D4908550C21B9
:1013D00061430D4A881800F005FE00280ED0002158
:1013E0002046FEF7BFFE0C216143074A881800F033
:1013F00025FE002003490855FFF750FF10BD0000EF
:101400006F0100205C0100207800002010B5FFF77C
:1014100095F9FEF7BDFFFF2101310920C006FFF756
:101420004BF8012149022248FFF746F8FF2101311C
:101430001F48FFF741F801211D48FFF73DF8102133
:101440000920C006FFF738F820210920C006FFF761
:1014500033F840211648FFF72DF80121C90315483C
:10146000FFF728F8012189031248FFF723F801212B
:1014700049031048FFF71EF820210D48FFF71AF81E
:1014800001210C48FFF716F802210A48FFF712F86D
:1014900004210848FFF70EF8012189020548FFF7EB
:1014A00009F80121C9020348FFF704F810BD000044
:1014B0000008004800040048024A125C8A43014BBD
:1014C0001A5470475C00002010B5FF21013109203B
:1014D000C006FEF7EFFF012149023F48FEF7EAFF91
:1014E000FF2101313C48FEF7E5FF01213A48FEF7B4
:1014F000E1FF10210920C006FEF7DCFF0520FFF701
:1015000004FF00245AE0354800788021214108403A
:10151000002804D040213048FEF7CEFF03E04021F0
:101520002D48FEF7C7FF2D48407880212141084013
:10153000002805D00121C9032948FEF7BDFF04E0BA
:101540000121C9032648FEF7B5FF24488078802191
:1015500021410840002805D0012189032048FEF7D9
:10156000ABFF04E0012189031D48FEF7A3FF1B48E0
:10157000C078802121410840002805D0012149037D
:101580001748FEF799FF04E0012149031448FEF7CC
:1015900091FF0520FFF7B9FE20210920C006FEF7C4
:1015A00089FF0520FFF7B1FE20210920C006FEF7C4
:1015B00083FF0520FFF7A9FE601CC4B2082CA2DB44
:1015C0000520FFF7A2FE10210920C006FEF774FFD8
:1015D0000520FFF79AFE10BD000800485C000020BF
:1015E00000040048024A125C0A43014B1A54704737
:1015F0005C00002010B52248007801280CD10121A0
:101600000320FEF7AFFD1F4800681F494860012016
:10161000087000201A4908701B4840681949096879
:10162000081A1A49884209D900210120FEF79AFDBB
:10163000002017490870FFF731FE20E0124840688B
:1016400010490968081A1349884208D90021022064
:10165000FEF788FD01210846FEF784FD0FE00A48E9
:10166000406808490968081A0B49884207D90021CF
:101670000320FEF777FD01210220FEF773FD10BD68
:101680000B0000200000002084010020BC1B000093
:10169000090000204C0400002602000010B522487A
:1016A000007801280CD101210320FEF75BFD1F48C3
:1016B00000681F4948600120087000201A4908701E
:1016C0001B48406819490968081A1A49884209D90B
:1016D00000210120FEF746FD002017494870FFF762
:1016E000DDFD20E01248406810490968081A1349D6
:1016F000884208D900210220FEF734FD0121084666
:10170000FEF730FD0FE00A48406808490968081AEA
:101710000B49884207D900210320FEF723FD012150
:101720000220FEF71FFD10BD0B000020000000206E
:1017300084010020442F0000090000204C04000018
:101740002602000038B5044620126A461070547014
:1017500051781078FFF7B0FE38BD38B50446201236
:101760006A461070547051781078FFF73BFF38BD0F
:1017700070B505460C46002C03D02846FFF7EDFF58
:1017800002E02846FFF7DEFF70BD10B5FFF79CFEB4
:1017900010BD000070B504460D464748005D0128A5
:1017A00012D10020454908550C216143444A88184C
:1017B000FF21913100F038FC4B21C900414800F075
:1017C00033FC00203C4908550C2161433C4A8818F1
:1017D00000F008FC002817D00C216143384A881813
:1017E00000F01AFC601E3849085C002801D1012174
:1017F00000E00021601E344A1154621E324B995C95
:10180000A21CD0B2FFF758F82E4800F0EBFB0028DE
:101810001AD00C2161432D4A8818FF21913100F024
:1018200003FC284800F00AFC601E274A115C204691
:10183000FFF742F8601E2449095C254A11541F48ED
:10184000005D401C1D4908550C2161431F4A881842
:1018500000F0C8FB002819D00C2161431B4A8818EE
:1018600000F0DAFB601E1A49085C002801D1012152
:1018700000E00021601E164A1154115C2046FFF75B
:101880001BF80E48005D401C0C4908550B48005DD4
:10189000A84210D10C2161430C4A881800F0CEFBFD
:1018A0000C216143064A881800F0C8FB0020094952
:1018B0000855FFF7F3FC70BD2E0000202B00002020
:1018C000E40100200802002033000020C0010020B5
:1018D000310000202500002010B513484078012871
:1018E00005D112484178012000F04EF808E00E487A
:1018F0004078022804D10D4841780120FFF74AFFC3
:1019000009488078012805D108488178022000F034
:101910003BF808E004488078022804D10348817825
:101920000220FFF737FF10BD25000020280000200F
:1019300010B513484078012805D11248417801209C
:1019400000F05AFA08E00E484078022804D10D4809
:101950004178012000F0FAF909488078012805D182
:1019600008488178022000F047FA08E004488078AF
:10197000022804D103488178022000F0E7F910BD65
:10198000110000201400002070B504460D464848A0
:10199000005D012812D10020464908550C21614301
:1019A000454A8818FF21913100F03EFB4B21C900C8
:1019B000424800F039FB00203D4908550C216143A5
:1019C0003D4A881800F00EFB002814D00C2161431A
:1019D000394A881800F020FB601E3949085C00284D
:1019E00001D1012100E00021601E354A1154115C33
:1019F0002046FEF761FF314800F0F4FA00281BD0C2
:101A00000C2161432F4A8818FF21913100F00CFB13
:101A10002A4800F013FB621E294B995CA21CD0B22D
:101A2000FEF74AFF601E2649095C274A11542148E7
:101A3000005D401C1F4908550C216143214A88184C
:101A400000F0D0FA00281CD00C2161431D4A8818F0
:101A500000F0E2FA601E1C49085C002801D1012157
:101A600000E00021601E184A1154621E164B995C5A
:101A7000A21CD0B2FEF720FF0E48005D401C0D49AD
:101A800008550C48005DA84210D10C2161430A4A58
:101A9000881800F0D3FA0C2161430A4A881800F034
:101AA000CDFA002009490855FFF7F8FB70BD00008A
:101AB0002E0000202B000020C00100200802002082
:101AC00031000020E4010020330000202500002028
:101AD000FEF7B8FFFFF79AFC00F0C4FA092012499C
:101AE000087011E0012110480078FEF73BFBC82088
:101AF000FFF702FC00210C480078FEF733FB0A4890
:101B00000078401C08490870074800781328E9DB72
:101B100008E0FFF7BDFAFFF747F9FEF728FC0520BC
:101B2000FFF7F3FBF5E700000800002010B50446BE
:101B300000212046FEF7B7FD002002490855FFF7B7
:101B4000ADFB10BD0E00002010B50446012120465B
:101B5000FEF7A9FD002002490855FFF79FFB10BDC5
:101B60000E00002010B5012410E00A48005D012895
:101B700003D12046FFF712FC06E00648005D02286C
:101B800002D12046FFF7D2FB601CC4B2132CECDB61
:101B900010BD00005C01002010B50E4840780128FF
:101BA00002D1FFF7D1FF06E00A484078022802D1AF
:101BB0000120FFF7BBFF07488078012803D10220EE
:101BC000FFF7C2FF05E003488078022801D1FFF744
:101BD000ADFF10BD0E00002010B52548007801288B
:101BE0000ED10220FFF7A2FF00210220FEF7B2FC77
:101BF00001210846FEF7AEFC00201D49087035E0C3
:101C00001B48007802280DD1FFF790FF0021022029
:101C1000FEF7A0FC00210120FEF79CFC00201449E7
:101C2000087023E01348007801280ED10220FFF746
:101C30007DFF00210120FEF78DFC01210220FEF72F
:101C400089FC00200B49087010E00A48007802283F
:101C50000CD1FFF76BFF00210120FEF77BFC002178
:101C60000220FEF777FC00200249087010BD00003A
:101C70001E0000201F00002010B52B4840780128CE
:101C800005D1FEF769FE0020274948704AE0264842
:101C90004078022806D10120FEF755FE0020224997
:101CA00048703FE020488078012806D10220FEF7E6
:101CB00053FE00201C49887034E01B4880780228BD
:101CC00005D1FEF740FE0020174988702AE016482B
:101CD000C078012806D10320FEF73EFE00201249FD
:101CE000C8701FE01048C078022806D10320FEF714
:101CF0002AFE00200C49C87014E00B480079012826
:101D000006D10420FEF728FE00200749087109E0EB
:101D100005480079022805D10420FEF714FE0020B2
:101D20000149087110BD00002000002010B50648D0
:101D30000078012801D1FFF75DFC034840780128B5
:101D400001D1FFF7ABFC10BD0900002070B50446BF
:101D50000D462448005D012810D100202249085575
:101D600000212046FEF7A8FD0C2161431F4A881878
:101D7000502100F059F900201A4908550C216143FF
:101D80001A4A881800F02EF9002819D00C21614356
:101D9000164A881800F040F915480078002801D14B
:101DA000012000E0002012490870A11CC8B21049AF
:101DB0000978FEF781FD0C48005D401C0A49085572
:101DC0000948005D690088420AD10C216143074A35
:101DD000881800F033F9002006490855FFF75EFA2D
:101DE00070BD00001A000020170000209C01002098
:101DF0001D0000201100002070B504460D46244847
:101E0000005D012810D100202249085501212046FB
:101E1000FEF752FD0C2161431F4A8818502100F043
:101E200003F900201A4908550C2161431A4A881801
:101E300000F0D8F8002819D00C216143164A881800
:101E400000F0EAF815480078002801D1012000E0F0
:101E5000002012490870A11CC8B210490978FEF789
:101E60002BFD0C48005D401C0A4908550948005DDF
:101E7000690088420AD10C216143074A881800F0A2
:101E8000DDF8002006490855FFF708FA70BD00008C
:101E90001A000020170000209C0100201D000020D7
:101EA0001100002030B504460025ED430AE000F0A3
:101EB000C9F80546681C002800D104E0E9B2606852
:101EC00000F06AF8F3E700BF30BDF8B504460D46F0
:101ED00026460AE000F020F80746781C002800D1CA
:101EE00005E03770761C6D1E00BF002DF2D100BFDB
:101EF000301B00900098F8BD70B503460C460026D4
:101F00001D4604E0287800F0B5F86D1C641E002C16
:101F1000F8D1EE1A304670BD0020C0430849498808
:101F2000074A128891420AD005494988054A505CFF
:101F300003494988491C8905890D014A5180704728
:101F4000140600201402002010B50D4C0D480E4957
:101F500048600E48886008460460012189020948EB
:101F6000FEF7E3F800200A49088048800121890231
:101F70000648FEF7DAF8002006490880488010BDC0
:101F800060000020140200201C0A00201806002017
:101F900014060020180A00200122920282181288DA
:101FA00081540122920282181288521C9205920DCD
:101FB00001239B02C3181A80012292028218128800
:101FC00001239B02C3185B889A420AD10122920224
:101FD00082185288521C9205920D01239B02C3184D
:101FE0005A80704701460878002800D17047087869
:101FF00002280CD0074802684868101A8B6898427B
:1020000003D9022008700120F0E70020EEE701204C
:10201000ECE70000000000208268416889184160F8
:1020200001210170704700008160034A126842601C
:1020300001220270704700000000002000210170A2
:10204000704700000020C0430549C96920221140A3
:10205000002903D0024920318988C8B270470000A6
:102060000038014010B5FEF783FDFEF711FBFFF7C6
:102070006BFF10BD014600BF0548C06980221040BB
:102080000028F9D00248203001810120704700006B
:1020900000380140B4200008000000207800000053
:1020A000DA1200082C21000878000020E00F000060
:1020B000EA12000800000000B80B00000000000059
:1020C0000000000000000000000000000000000010
:1020D0000000000000000000000000000000000000
:1020E00000000000000000000000000000010203EA
:1020F000040102030406070809000000006CDC026A
:1021000000000000000000000102030406070809A7
:1021100000000000003801401B000000000000002B
:0C212000000000000000000000000000B3
:04000005080000D51A
:00000001FF
